:400000000080002011000000550700005507000008B5044B1A6803F53F5302331A6000F0A1FB00BFFA46004010B5054C237833B9044B13B10448AFF300800123237010BD23
:400040007881FF1F0000000048240000084B10B51BB108490848AFF300800848036803B910BD074B002BFBD0BDE81040184700BF000000007C81FF1F48240000C880FF1FCA
:400080000000000008B5444B1B68082B0CDC002002F02AF802F036F83F4A136802EB830148600133136002E000223B4B1A603A4BDB6A082B0CDC012002F016F802F022F828
:4000C000354AD36A02EB830108630133D36202E00022314BDA62304B9B6D082B0CDC022002F002F802F00EF82B4A936D02EB8301C8650133936502E00022274B9A65264B7A
:40010000D3F88430082B0FDC032001F0EDFF01F0F9FF214AD2F8843002EB8301C1F888000133C2F8843003E000221B4BC3F88420194BD3F8B030082B0FDC042001F0D4FF1D
:4001400001F0E0FF144AD2F8B03002EB8301C1F8B4000133C2F8B03003E000220E4BC3F8B0200D4BD3F8DC30082B0FDC052001F0BBFF01F0C7FF084AD2F8DC3002EB8301A5
:40018000C1F8E0000133C2F8DC3008BD0022024BC3F8DC2008BD00BF9481FF1F0023194605E050F82320914200DA11460133092BF7DD0846704700BF08B501F061FE01F016
:4001C000E9FDB42001F008FE002001F00BFEB42001F08CFD002001F08FFD08BD08B501F04FFE01F0D7FD002001F0F6FDC82001F0F9FD002001F07AFDC82001F07DFD08BD51
:4002000008B501F03DFE01F0C5FD002001F0E4FD612001F0E7FD5A2001F068FD002001F06BFD08BD08B58C2001F0D6FD8C2001F0D9FD8C2001F05AFD8C2001F05DFD08BD7C
:4002400010B501F01DFE01F0A5FD002001F0C4FD0A4C2068636818442060C0B201F0C2FD207A01F043FD064AD2F8080163681844C2F80801C0B201F03FFD10BDCC80FF1FF3
:400280009481FF1F10B501F0FBFD01F083FD084C207901F0A1FD207A01F0A4FDA06863681844C0B201F022FD002001F025FD10BDCC80FF1F2DE9F0476B4801F06FFE62B6B3
:4002C0000121002000F0F6FC01F0FAFE01F03EFE664C201DFFF762FF824604F13000FFF75DFF074604F15C00FFF758FF814604F18800FFF753FF064604F1B400FFF74EFF90
:40030000804604F1E000FFF749FFB6F5FA7F04DA0122C4F80C2100257BE0B8F5FA7F04DA0125524BC3F8105173E0B7F5FA7F05DAB9F5FA7F02DAB0F5FA7F51DBB7F5FA7FAA
:4003400005DDB9F5FA7F02DAB0F5FA7F4ADBB7F5FA7F02DDB9F5FA7F46DBB7F5FA7F05DAB9F5FA7F02DDB0F5FA7F3FDBB7F5FA7F02DAB9F5FA7F3BDC3C4BD3F80C31012BCD
:4003800008D1B7F5FA7F35DBB9F5FA7F34DBB0F5FA7F33DB354AD2F81021012A09D1B7F5FA7F2DDBB9F5FA7F2CDBB0F5FA7F2BDB2FE0BAF5FA7F0DDAB7F5FA7F02DBB9F501
:4003C000FA7F07DA294B0022C3F81021C3F80C2102251EE0012B19D0012A19D1012518E0022516E0042514E0042512E0052510E005250EE000250CE000250AE0002508E018
:40040000012506E0012504E0012502E0002500E00325052D3FF65CAFDFE805F00C1703220609FFF7EDFE53E7FFF70AFF50E7FFF729FF4DE70D4BD3F80C31012B02D1FFF7F4
:40044000BBFE45E7FFF7DCFE42E7084BD3F81031012B02D1FFF7C2FE3AE7FFF7D1FE37E7FFF7E0FE34E700BF850000009481FF1FFEE700BFF0B40022174611E050F8276099
:40048000F3B226F0FF0608E001EB420511F812406D78A5550132013BDBB2002BF4D101372B2FEBD9F0BC704708B50A46002101F0C2FF08BD38B501222C4B1A801925023349
:4004C0001D70022202331A80182202331A70172202331A801C2202331A7040F65F1202331A8002331D70062203F272231A705222A3F580731A701E4B1B78DBB21D4A13700E
:400500004FF4E1621C4B1A8041F25122023B1A8000240CE0194B1B7803F0010343EA440404F003044FF4F07001F00EFF013D0DB1032CEFD115B90320FFF79AFF104A4FF4A0
:40054000807313800723137000230E490B7048200231087013700532137002220A4B1A700A4A137843F00F03137038BD804000400F010049A1460040224200402542004099
:40058000044000400640004001400040A2430040F8B5164B1B78DBB2154E3478E4B2154F3D78EDB203F00701134A11701B090132137044F00303337045F003033B707C22EC
:4005C0000E4B1A70802203F2D4731A700F2203F21F231A70202203331A700A2000F000FA3D7034704422064B1A70F8BDCF010049F8460040F94600406E5800402D51004087
:400600007658004008B501F00BFF08BD38B572B600240CE0394D630019194A0011462A44084691882858FFF73FFF0134E4B2062CF0D900240BE03149A300181942008818C0
:400640001022016BC06AFFF7DDFF0134E4B2002CF1D02B494FF09040FFF70CFF04212948FFF722FF042228492848FFF7CBFF284A284B1A60284A137843F0020313701032D7
:40068000137843F002031370244C237843F040032370A2F58632513A137843F01003137008221F491F48FFF7ADFF08221E491F48FFF7A8FF0A221E491E48FFF7A3FF0822C7
:4006C0001D491E48FFF79EFF08221D491D48FFF799FF1D4A137843F0080313701B4D61232B70FFF7E7FE81232B70FFF751FF0E2221461748FFF786FF38BD00BF4C240000E9
:40070000B000004800760040800C004808760040040400C4580C014003500140A0430040540C0048025100405C0C0048C2510040640C0048F0510040700C00481251004073
:40074000780C0048225100402243004000480040B043004008B501F037FE03680C2B00D1FEE7FEE708B5104E104D16E029686B68AC68002204E051F8040B43F8040B0432B6
:40078000A242F8D1E868002203E0002143F8041B04328242F9D11035013E002EE6D101F019FEFFF787FDFEE7010000001C26000008B5114A114B1A60114A136843F4007377
:4007C000136000230AE0032B03D80E4A52F8231000E00D490D4A42F8231001332F2BF2D90B4B1A780B4B1A70084A0B4B1A60FFF70DFF00F013F808BD0004FA050CED00E0C0
:4008000014ED00E000000000550700000080FF1FBC760040C080FF1F08ED00E00B4A7F2313708021517007E0DA0002F1804202F5F042013BDBB21370002BF5D1DB0003F1B1
:40084000804303F5F04300221A707047D880FF1F172815D831B103010A495A5C42F020025A5405E0030107495A5C02F0DF025A540001044A835C43F0010383540020704711
:40088000012070471070004017280CD80001074BC1180A7942F004020A71C25C42F00102C254002070470120704700BF1070004017280BD80001064A835C03F0F103490002
:4008C00001F00E011943815400207047012070471070004041F6FF73994201D14FF4005141F6FF739A4201D14FF40052172808D8C00000F1804000F5EC408180C28000206E
:4009000070470120704700BF172805D8034B03EB0010417200207047012070471070004017281BD810B4C00000F1804404F5EC44D201D2B201F07F01114321709DF80420E5
:400940001201D2B203F00F03134363709DF8083003F00F03A3700020E07001E00120704710BC704710B501F0F7FC0A4B5B78182B0BD9084A1478013B5370E30003F18043B2
:4009800003F5F0431B78137000E0FF2401F0E8FC204610BDD880FF1F10F0800F0CD111F4704F0BD1C00000F1804000F5F04001808270C370002070470120704701207047A6
:4009C00010F0800F08D1C00000F1804000F5F0408180C280002070470120704701BE704708B5034B1B7A00FB03F001F0ADFC08BDE080FF1F70B504460E46074B1D681F2845
:400A000002D90020FFF7EAFF04F01F04103455F8240045F8246070BD08ED00E038B504460D46072902D90020FFF7D8FF1F2C02D90020FFF7D3FF04F01F0000F1604000F524
:400A400064406D01EDB2057038BD00BF134B1B78DBB20360124A127843EA02230360114A127843EA024303600F4A127843EA026303600E4B1B78DBB243600D4A127843EA64
:400A8000022343600B4A127843EA024343600A4A127843EA02634360704700BF0301004904010049EC4600400201004901010049000100490501004906010049F8B501F0C6
:400AC0004BFC0746404A137843F0010313701032137843F00103137001263C4B1E700225943B1D7002F5E2521B32137803F07F0313700020FFF774FF354C237803F0F903BE
:400B00002370344A137803F0DF0313702378334323703046FFF764FF2820FFF761FF2E4B1A7802F07F021A701A7802F0BF021A7023782B4323702846FFF752FF237843F0BA
:400B4000040323700023254A137001321370384601F006FC07211720FFF760FF20491720FFF748FF07211820FFF758FF1D491820FFF740FF07211520FFF750FF1A49152054
:400B8000FFF738FF07213046FFF748FF17493046FFF730FF07212846FFF740FF14492846FFF728FF07210320FFF738FF11490320FFF720FF07210C20FFF730FF0E490C2079
:400BC000FFF718FFF8BD00BFA54300409D6000409443004012600040F8510040846000405D1300004511000059130000B9120000E91200001D1300006513000008B5214BD0
:400C000018700023204A1370204A1370204A1370204A1370204A1370204A1370204A1370204B4FF400021A604FF080721A604FF400121A6002221A6004221A6008221A6008
:400C400011B1012906D00BE0174A137803F0FE0313700AE0144A137843F00103137004E0114A137843F00103137003220F4B1A708022203B1A70012001F066FB04220C4BD3
:400C80001A7008BDB783FF1FB683FF1F2883FF1F2983FF1F2A83FF1FBA83FF1F2B83FF1F2783FF1F00E100E009600040286000401260004038B504460D46064B1B7823B9BB
:400CC000FFF7FCFE0122034B1A7029462046FFF795FF38BDE882FF1F00230A4A13700A4A13700A4A13700A4A13700A4A13700A4A13700A4A13700322094B1A708022203B29
:400D00001A707047B683FF1F2883FF1F2983FF1F2A83FF1FBA83FF1F2B83FF1F2783FF1F2860004010B4FF2400230EE0094AD25C02EB42029100084A11448A7AD2B28242D8
:400D400001D11C4602230133DBB2012BEED9204610BC70471483FF1F4883FF1F10B5204C2079FFF7DFFF237813F0800F0ED06378DBB2212B2FD11B4B07221A80C0EBC000EE
:400D8000194A1044586000F04BFA10BD144B5B78DBB2202B02D0222B10D01EE0114A07231380C0EBC00310490B4453600F4A135C43F00103135400F05BFA10BD084B9B78FC
:400DC0000B4A22F81030094A135C43F00203135400F0E4F810BD002010BD002010BD00BF006000403883FF1FF080FF1F1C83FF1F2083FF1FC37803F0030390F90200002845
:400E00000FDA032B06D002F001030B48C15442F001020EE0C2F380030848C15442F0040207E0032B05D0C2F340030548C15442F002021046704700BF0C83FF1F1483FF1FC7
:400E40001083FF1F1D4B19781D4A13889BB20B449BB2138000220FE01A494B681B78DBB2194883544B6801334B600132D2B20B889BB2013B9BB20B80124B1B889BB20BB185
:400E8000072AE9D90D4B1B78DBB2082B00D05AB10E490B7883F080030B700F210C4B197002210C4B197004E0022309490B7009490B70094B1A70014B1A7070472783FF1F85
:400EC000B483FF1F3883FF1F006000402C83FF1F2683FF1FB683FF1F4483FF1F0222074B1A708022064B1A700F22064B1A700023054A1370054A137001207047B683FF1FD5
:400F00002C83FF1F2683FF1F2783FF1F4483FF1F08B5FFF797FF08BD10B4194B197801F00F010239C9B2174A13889BB20B449BB21380002011E0144A5468144B1B5CDBB2EC
:400F400023705368013353600130C0B20139C9B213889BB2013B9BB213800B4B1B889BB20BB10029E7D10A4B19700A4A137883F0800313700B22084B1A7010BC704700BF7B
:400F800029600040B483FF1F3883FF1F006000404483FF1F2C83FF1F2683FF1F0623064A1370064A13708022054B1A700022054B1A700120704700BFB683FF1F2683FF1F25
:400FC0002C83FF1F4483FF1F064B9B6843B1054B9A6810709A6804490988518000229A60704700BF3883FF1FB483FF1F08B5134B1A78D2B21A701B78DBB213F0800F02D075
:401000000F4A137008BD0220FFF7DEFF0D4B1B7803F06003202B05D0402B06D043B900F093FC06E001F0A0F903E000F037FE00E0002010B90322024B1A7008BD2860004033
:401040002683FF1F0060004008B5094B1978094A13889BB20B449BB213800022064B1A700120FFF7B1FF0322044B1A7008BD00BF2783FF1FB483FF1FB683FF1F2683FF1F7C
:4010800008B50B4B1B78DBB2042B06D0062B07D0022B0BD1FFF7D8FF08BDFFF73DFF08BD0320FFF791FF0322024B1A7008BD00BFB683FF1F2683FF1F08B50022044B1A705F
:4010C0000120FFF781FF0322024B1A7008BD00BFB683FF1F2683FF1F08B50B4B1B7813F0FF0F07D0084A137843F0800307490B70002313700022064B1A700120FFF764FFB2
:401100000322044B1A7008BDBA83FF1F08600040B683FF1F2683FF1F08B5094B1B78DBB2042B06D0062B07D0022B07D1FFF7F0FE08BDFFF7C1FF08BDFFF7CEFF08BD00BF1D
:40114000B683FF1F08B5284B1B78DBB213F0100F48D013F0800F0CD003F00F03012B16D1FFF744FF214B1B7813F0800F11D1012312E013F0400F03D0FFF7CEFF01230BE04F
:4011800013F0200F07D0FFF77BFF012304E0002302E0002300E0002323B3134B1B7813F0800F1FD1124B1B78124A12781343124A13701278D2B2934214D10C4B1B78DBB2F0
:4011C000094A127812F0800F07D1084B1B78DBB2054A1370137803F00F03044A1278D2B29342EAD108BD00BF286000402683FF1F2C83FF1F4483FF1F296000400022064BE7
:401200001A80064B9B682BB1044A916800230B7092685380704700BFB483FF1F3883FF1F08B50F4B1B889BB213B9FFF757FE15E002220C4B1A7000220B4B1A70FFF7DEFFA1
:401240000A4AD179937943EA0123054A128892B2934201D2024A1380FFF7F4FD012008BD3883FF1FB683FF1F2C83FF1F0060004008B504220B4B1A7080220B4B1A70FFF71A
:40128000BDFF0A4AD179937943EA0123084A128892B2934201D2064A13800B22054B1A70012008BDB683FF1F2C83FF1F006000403883FF1F2683FF1F0122094B1A700F3B20
:4012C0009B7C084B1B7B03F00303934204D0054AD37B83F08003D3730122024B5A7370470B6000404883FF1F02220A4B1A700F3B93F82230084B1B7E03F00303012B04D0DC
:40130000054AD37E83F08003D3760122024B5A76704700BF0B6000404883FF1F04220C4B1A700F3B93F832300A4B93F8243003F00303012B06D0074A92F8273083F08003EF
:4013400082F827300122034B83F82520704700BF0B6000404883FF1F704700BF08B5FFF7BBFC08BD08B500F0A5FC08BD70B588B0054603AC174E0FCE0FC43368237035B327
:4013800022232B7003236B7001A8FFF75FFB002402231AE008AA224412F81C2C08A901EB121111F8141CE954581C00212954981C02F00F0208AE324412F8142C2A54DA1CBD
:4013C000A9540134E4B20433DBB2212BE2D908B070BD00BF8424000010B401233EE019461A010C242148845403EB4300820020480244527912F0FF0F13D003EB430082004B
:401400001B480244127912F0800F04D01801194A024494700AE01801164A02440820907004E01801134A0244802090704800084482000F480244D488E4B208010B490144F5
:401440008C71D088C0F30720C871D088C0B20871D288C2F307224A710133DBB2082BBED9FF22054B1A7010BC704700BF706000404883FF1FFC5F00400A600040074B1A78E4
:40148000074B03EBC2035B681A7C824204D9C000103018444068704700207047B783FF1F98240000F8B5404B1B7813F0FF0F79D03D4B18780138C0B2FFF7E0FF047AC26822
:4014C0003A4B1878C0B200236AE01178884264D13749095CC9B25578A9425ED1917801F07F01D67806F00306DFF8C8E04D000D44AF000EEB07054FF0000C85F803C092F87C
:4015000002C085F804C092F803C00EF807C097882F8192F90250002D0DDA012E01D1072700E00D274E000E44B500224E35446F7101266E700CE0012E01D1052700E009273F
:401540004E000E44B5001B4E35446F7100266E70DFF868E00F010EEB07060125B57001FA05F529448D00134929440D89C5F307250EF807500D89EDB27570CE88F6B20E4DCE
:401580003D44AE71CE88C6F30726EE71CE88F6B22E71C988C1F30721697108320133DBB2A34292D3F8BD00BF2983FF1F2A83FF1F3483FF1F4883FF1F70600040FC5F004095
:4015C000034B1A78034B03EBC2035868704700BFB783FF1F9824000008B5084B18780138C0B2FFF74BFF30B142681279023200EBC203586808BD002008BD00BF2983FF1F48
:401600002DE9F047002310E0724D5900CA189600AC190022AA55A270E2702281A272627034462C4462710133DBB2082BECD940B90AE000226849CA546849CA540133DBB20D
:4016400000E00023012BF4D9654B1B7813F0FF0F00F0BD80624B18780138C0B2FFF70EFF80464368DB7913F0400F05D05D4A137843F00103137004E05A4A137803F0FE0323
:40168000137098F808704FF0000A01266FE0D8F80C50002467E0AB7803F07F039E425FD1314606EB460083004A4803441B899BB2A888834206D206EB460E4FEA8E03454A3B
:4016C000134418812B784448C35CDBB26878834246D195F802C0DFF8FCE04B000B4498000EEB000383F804C0EB780EF80030EB7803F0030395F90200002813DA012B02D15B
:401700004FF0070901E04FF00D09DFF8C8E04B0003EB010C4FEA8C00704480F805900121417012E0012B02D14FF0050901E04FF00909DFF8A0E04B0003EB010C4FEA8C0034
:40174000704480F8059000214170AB790A2B01D0022B05D1524631462846FFF74BFB824608350134E4B2BC4295D30136F6B2082E8DD9D8F80C0000220CE0837803F07F03E5
:4017800010F8084B03EB43039900124B19448C720132D2B2BA42F0D3FFF71EFF124B1860002301210FE00B4D4A00501884002C44E380228992B213449BB203F00102134476
:4017C0009BB20131C9B20829EDD9FFF705FEBDE8F08700BF4883FF1F3483FF1F2483FF1F2983FF1F2B83FF1F3083FF1F08B5154B1B7903F07F035A1ED2B2072A20D8590096
:4018000019448A0010490A44917841F0010191700021D170517841F002015170127912F0800F05D01B01094A1A448D23937004E01B01064A1A4489239370FFF7AFFB08BD8A
:40184000002008BD006000404883FF1FFC5F0040274B1B7903F07F035A1ED2B2072A44D810B5590019448A0022490A44917801F0FE0191700021D1701F4C1801215C01F08F
:401880007F012154517801F0FD015170127912F0800F13D003EB43018A0016490A445278D2B2012A04D1224602440C23937019E01B01114A1A440D23937013E003EB4301FE
:4018C0008A000C490A445278D2B2012A05D11B01094A1A440823937004E01B01064A1A4409239370FFF75AFB10BD0020704700BF006000404883FF1FFC5F004010B50E4BA4
:401900001C79E4B20D4B18780138C0B2FFF7B6FD43681B799C4201D9022C0AD8084A135DDBB208490B55044B9B78DBB21355012010BD002010BD00BF006000402983FF1FDE
:401940003483FF1F2483FF1F10B59C4B1B78DBB200219B4A118013F0800F00F0AD80974A5278D2B20A2A00F27481DFE812F06900720172017201720172010B0072019200F0
:4019800072019A008D4BDB78DBB2012B09D1FFF717FE42688A4B5A6012221A80FFF740FC10BD864BDB78DBB2022B13D1834B9878FFF764FD002800F04E814268804B5A603E
:4019C0005A68D1785A68927842EA01221A80FFF727FC10BD794BDB78DBB2032B05D02CE00A7811440133DBB201E000237549734A9278D2B2934203D20A7812F0FF0FEFD1ED
:401A00006E4B9B7813F0FF0F0BD06C4B9B78DBB26D4A127C934204D16C4C2046FFF7A6FC21460B7813F0FF0F00F017810B78644A13805160FFF7F4FB10BD00F095FC10BDFA
:401A400013F0030317D0022B40F009815C490B805A4B1B7903F07F0303EB43039A005C4B1A449278D2B25B4B1A7000225A704B60FFF7D6FB10BD524902230B80564B1A7877
:401A8000D2B2544B1A7000225A704B60FFF7C8FB10BD4B4B01221A80504A5A60FFF7C0FB10BD474A01231380444B1B794C490B445360FFF7B5FB10BD404A5278013A0A2AFF
:401AC00000F2CF80DFE812F04C00CD009800CD000B00CD00CD00CD001300CD003000374B9B78DBB23F4A1370FFF758FA10BD334B9B7803F0FF041BB1601EC0B2FFF7BEFCA6
:401B000004B110B9002C40F0AE80344B1B78DBB29C4206D0314B1C700120334B1870FFF76FFDFFF73BFA10BDFFF7E8FE002800F09C80224A1379DBB21279D2B22B490A702F
:401B40002B4AD25CD2B22649CB5CDBB29A4204D00122254B1A70FFF7A5FCFFF71FFA10BD03F00303012B17D04BB1022B7FD1134B9B7813F0FF0F7CD1FFF76AFE10BD0F4B02
:401B80009B78DBB2012B76D1134A137803F0FD031370FFF703FA10BD084B1B79DBB2012B6BD8064B98781B79DBB21249CA5C22EA0002CA54FFF7F2F910BD00BF00600040D5
:401BC0003883FF1F00250000E4250000D483FF1F4883FF1FEC82FF1F2B83FF1F2983FF1F3483FF1FBA83FF1F2883FF1F2A83FF1F2483FF1FB883FF1F03F00303012B17D070
:401C00004BB1022B3BD1224B9B7813F0FF0F38D1FFF7ECFD10BD1E4B9B78DBB2012B32D11C4A137843F002031370FFF7B7F910BD174B1B79DBB2012B27D8154B98781B7920
:401C4000DBB21549CA5C22EA0002CA54FFF7A6F910BD002010BD002010BD002010BD002010BD002010BD002010BD002010BD002010BD002010BD002010BD002010BD002076
:401C800010BD002010BD002010BD002010BD00BF006000402B83FF1FB883FF1F044B1B7813F0800F01D0024B5B780020704700BF00600040024B1878C0F38010704700BFDB
:401CC0008F450040024A137843F080031370704774640040014B1870704700BF00640040014B1870704700BF40640040014B1870704700BF20640040014B1870704700BF7D
:401D000030640040014B1870704700BF83640040014B1878704700BF63640040014B1878704700BF5064004008B501E0FFF7F6FFFFF7EEFF10F0100FF8D108BD08B5134A8C
:401D4000137803F0C00343F02D0313701C32137843F001031370FF20FFF7BCFFFF20FFF7BFFF7F20FFF7C2FF7F20FFF7C5FF0020FFF7C8FF00F0F0FA054A137843F0100380
:401D8000137000F0EDFAFFF7CFFF08BD746400409364004008B5054B1B7823B9FFF7CEFF0122024B1A70FFF78DFF08BDEE82FF1F024A137843F080031370704779650040FE
:401DC000014B1870704700BF0A650040014B1870704700BF4A650040014B1870704700BF2A650040014B1870704700BF3A650040014B1870704700BF89650040014B18781B
:401E0000704700BF69650040014B1878704700BF5A65004008B501E0FFF7F6FFFFF7EEFF10F0100FF8D108BD08B5134A137803F0C00343F02D0313702132137843F001035E
:401E40001370FF20FFF7BCFFFF20FFF7BFFF7F20FFF7C2FF7F20FFF7C5FF0020FFF7C8FF00F07AFA054A137843F01003137000F077FAFFF7CFFF08BD796500409965004063
:401E800008B5054B1B7823B9FFF7CEFF0122024B1A70FFF78DFF08BDEF82FF1F084A137843F0010313701032137843F00103137002F64D32137843F001031370704700BFC3
:401EC000A3430040014B1870704700BF034F0040014B1880704700BF044F0040014B1880704700BF064F004008B5154A137803F0010313700232137803F0FC031370114B53
:401F00001A7802F0CF021A701A7842F030021A701A7802F0F0021A701A7842F00F021A70094A137843F0010313700920FFF7D0FF0920FFF7D3FF0820FFF7C4FF08BD00BF07
:401F4000004F00400B4F0040014F004008B5054B1B7823B9FFF7C8FF0122024B1A70FFF79DFF08BDF082FF1F014B1B681865704708ED00E04001C0B2014B1870704700BFB9
:401F800004E400E01022014B1A60704700E100E01022014B1A60704780E100E010B50446FFF7F6FF2046FFF7DFFF0720FFF7E2FFFFF7E8FF10BD00BF10B541F6FF734FF4AD
:401FC00080420121022000F075F9084C207041F6FF731A4601210C2000F08AF96070044800F0A4F9002000F0A7F910BDF482FF1F0D21000070B52C4C2078FEF745FC6078A4
:40200000FEF742FC294B1B78FF2B03D1FEF7AAFC264B1870254D2878062302460C21FEF7BBFC214E341DA4B2224645F6A0312878FEF7C6FC29783078FEF766FC6B78FF2BEA
:4020400002D1FEF78FFC6870184D6878072302460C21FEF7A1FC164A92B221466878FEF7AFFC114C69786078FEF74EFC01212078FEF7EEFB01216078FEF7EAFB00F06CF91E
:402080000C4A137843F02003137000F069F90A4B1A7842F001021A701A7842F002021A700122064B1A6070BDF482FF1F0A81FF1FBC83FF1F976500407465004080E200E0D0
:4020C00008B5074B1B6923B9FFF776FF0122044B1A6100F0B5F8FFF78DFF024B1B7808BDF482FF1F68640040C0F10500034B33F91030034A1088181A00B27047BC83FF1F68
:40210000D083FF1F08B500F0A9F808BD704700BF08B50A280FD00C2802D0082806D102E04FF4805209E04FF4807206E00020FEF755FC002201E04FF480620021084B198034
:4021400042F2107303FB02F313F5806301D503F2FF73DB12034A13600022034B1A8008BDC883FF1FCC83FF1FD083FF1F10B500F0F3F80446184A137843F0010313701032F7
:40218000137843F00103137002F5AA520832137843F0030313700422104B1A70013B1A7802F0BF021A701A7842F003021A700E22053B1A700222A3F597530C3B1A70084A3A
:4021C000137843F0080313700A20FEF709FC204600F0C6F810BD00BFAB43004006590040275B004010B504460A280DD00C2802D0082804D101E0C42207E0442205E00020FE
:40220000FEF7ECFBC42200E08422034B1A702046FFF77EFF10BD00BF0259004008B5064A137843F0060313700C20FFF7DBFF0022024B1A8008BD00BF01590040CA83FF1F99
:4022400008B5054B1B7823B9FFF7E8FF0122024B1A70FFF78BFF08BD0883FF1F10B4124B1B881BB233B1104B1B881BB203EB83035C0001E00D4B1C680D4B1988411A09B241
:4022800042F2107303FB01F2002903DD04EBD470401003E004EBD47040104042831893FBF4F000B210BC7047C883FF1FCC83FF1FCA83FF1FF0B583B016461F460B4C012569
:4022C00025700023019300932B460A4601462846FEF726FB3A4631462078FEF7FBFA02212078FEF7E5FA207803B0F0BD0C81FF1FF0B583B016461F460B4D00242C70019482
:40230000009423460A4601462046FEF709FB3A4631462878FEF7DEFA02212878FEF7C8FA287803B0F0BD00BF0D81FF1F014B1B681864704708ED00E04001C0B2014B187003
:40234000704700BF00E400E00230800803D000BF01380046FCD17047EFF3108072B6704780F31088704700BF08B5144B1B7803F00303012B02D0022B04D00FE00F4B1B797E
:40238000DBB20CE00D4B1B7903F07F0303EB43039A000B4B1A44937ADBB200E00023022B07D8084A1268D35C022B04D1FEF7D6FC08BD002008BD002008BD00BF0060004066
:4023C0004883FF1F3083FF1F014B1868704700BF7081FF1F0E4B70B51E460E4C0025E41AA410A54204D056F8253098470135F8E700F002F9084B094C1E46E41AA41000259F
:40240000A54204D056F8253098470135F8E770BD0426000004260000042600000C26000010B5431E0A44914204D011F8014B03F8014FF8E710BD03460244934202D003F8D5
:40244000011BFAE77047000000000000004F00400C0030510040400000000140001000140140000800400140000A004C01400002105001401000000000500140440C00486A
:4024800010000000303132333435363738394142434445460000000001000000A024000001000000E4250000000000000000000001000000B824000001000000A0250000F8
:4024C00003000000E42400000000000000000000000000000000000000000000E0240000020A000000008103080002000100820240000A000100030240000A00020300000F
:40250000040309042C0343007900700072006500730073002000530065006D00690063006F006E0064007500630074006F00720010035500530042005500410052005400B7
:402540003803430044004300200043006F006D006D0075006E00690063006100740069006F006E00200049006E00740065007200660061006300650026034300440043003C
:4025800020004400610074006100200049006E0074006500720066006100630065000000090243000201018032090400000102020103052400100104240202052406000120
:4025C00005240100010705810308000A09040100020A0000040705820240000007050302400000001201000202000008B40432F20100010280014300F8B500BFF8BC08BC28
:402600009E4670474D000000B1070000F8B500BFF8BC08BC9E4670472900000030260000C880FF1FB000000080020000000000000000000061000000050000005A000000A4
:402640007F800000030000000000E02EC05D00001800000000366E0100C2010000000800C201000000080000A1200000000002000000FFFFFFFF000000000000000000001B
:40268000000000000000000000000000000000000000000000000000F6250000000000000000000000000000000000000000000000000000000000000000000000000000FF
:4026C0000000000000000000000000000000000000000000000000001081FF1F0000000000000000000000000000000000000000000000000000000000000000000000002B
:402700000000000000000000000000000000000000000000000000000000000000000000000000000000000000000000000000000000000000000000000000000000000099
:402740000000000000000000000000000000000000000000000000000000000000000000000000000000000000000000000000000000000000000000000000000000000059
:402780000000000000000000000000000000000000000000000000000000000000000000000000000000000000000000000000000000000000000000000000000000000019
:4027C00000000000000000000000000000000000000000000000000000000000000000000000000000000000000000000000000000000000000000000000000000000000D9
:020000040003F7
:0200000480007A
:4000000001450040024F004005520040015B004003640040026500403A0001402A01014033020140420301403A0401403F050140270601403A070140460801404509014033
:400040005D0A0140500B0140380C0140460D0140330E01402E0F01402214014039150140121601403E1701403D1801403E190140231A01403D1B01400E40014006410140C2
:40008000094201400443014006440140104501400C4601400E47014004480140014901400B4C0140044D014003500140035101407E0201300A4B10541118602079107C401F
:4000C0002784830F8C6F8F0F8705890F051007040A1F0B200C060E110F201401150116121712181019181A041B03241825072603270828072A082D062F11301F3520371F93
:400100003F104030410145D046124745483F49FF4AFF4BFF4DA04F045018580459045A045C225D025F01604062C06440654066C068C06AC06CC06EC0D804D904DC11DF0104
:40014000001001400302055008040B040FA21020120414501840230A29042A042B022C102F40302433043440351038903B043FA240104140481049014B045068514053011B
:400180008040C0C3C2B6C436CACACC36CEBED00AE208E40401010B010F0119011D01210125012E01310136015608580459045B045C115D905F0188108A048E20910292401D
:4001C00093019401961298409C20A01FA418A603A807AA08AC06AD02AE11AF04B01FB102B220B440B504B701B902BE14D407D804D904DB04DC02DD20DF0100200302044065
:400200000510080609800B040C100E020FA010201140120413021440174019281A801D401E021F40208021802304250128022C102F403302344035103FA259015A805B1841
:400240005F406640810985308A409342941095409780980499019A049B0A9C509D549F04A038A751B340C0C3C2FFC49FCAC8CC31CEB0D61FD810E002E208E407E8200202BB
:40028000040209070A010B080C021002110613111402171F1A021C021D011F12232029182B032D102F04300233203401351F52BF580459045B045C215D205F01850787080C
:4002C0008D068F1190109101920493129418960398079A089C019E12A006A211A51FA918AB03AD10AF04B31FB41FD804D904DC22DF010040011003A008400A240B800C0949
:400300000D800F041502180819101A841F10201021182710280129212C092D202F1131883201370238203C803F0459045A08684069426A0A6B0470107181730680028302B8
:400340008C048E109382945095609C529D149F54A008A308A753AB08B040B340C00FC2FFC410CA7DCC8BCE54E204E601EA08EE01580459045C115F01810282048510860868
:40038000872089208B108C088F04900491809340940195089A019B019C029D04A202A302A540A780A901AE10AF08B1FFB41FB61FB8A0BE50BF01D804D904DC01DF01004063
:4003C000012403400448052008410A240B800F2012061305145119601BC02202284029112A042B312D202F4030123214334034103501380839103A023B843F268004850493
:4004000087808C408D01900893809440951096209A209C509F40A308A7F1AA40AE20C0EFC22FC4BFCAAFCCAFCEEFE008E409EC01EE02001E0320060107010B1E0D160E20B1
:400440000F08140A161419181B041C181D101E061F02200E210E28142A0A2C062D182E182F02301E31013220331E340135205401580459045B0D5D105F01810183128820BD
:4004800089188B038D108E208F04922094189603980799079A089B089C069E11A010A106A204A311AB1FAC01AE12B21FB420B51FBE10D280D804D904DB04DC22DF0100105C
:4004C000030105010721088009220A010B200D080F011241150117501A081B241C101D011E442304251026022710288029202D012F013120375038803A433B203C203E448F
:400500003F025D8071027E0882208440870489848D448E20910993039540964C9B419C409D019E209F10A010A108A514A60AA728AF40C0B3C2AFC4D9CA95CC34CEFDD6106C
:40054000DE20E04AE440EC0101CF03300B0F0D7311FD1302153017C9199E1B601D941F6035FF39023F114024410649FF4AFF4BFF4DA04F015018580459045A045C015F013D
:400580006040628064406540668068406A806C406D206E808050810284608D02920193019408960498049A089C049E08A030A102A404A608AA02AC60B002B102B20CB401D1
:4005C000B501B670B880B902BA08BF01C064C102C53CC602C74EC837C9FFCAFFCBFFCDAFCE07CF01D018D804D904DA04DF01E040E280E440E540E680E840EA80EC40ED200F
:40060000EE80022003080501071008480D0A0E06108011481511160117041CA21D0A1F54200823402440250127042D012F4031893350360338203A013B833D303F8240409C
:400640004320450147204A044E444F06564A5740824083408A408B108C088D148E2090209108930295419640973C9B219C489D149E2A9F10A080A180A204A455A51CA6289D
:40068000A708AD04AE04B0A0B210C036C2F5C4FDCA80CC8FCE9DD0A5D224E050E802ECA0EE0103100401070809200A040B400D200E010F401304170719011B021D411E027A
:4006C0001F22210724022520274029042D073001330F3510360637603B803E01540F580459045B045C095F058405860288048A038F03940799029E07A007A407AC02AE054B
:40070000B001B202B302B404B501D804D90DDC11DF010220030804040602070808480E021080114815081A941E821F402104221024242580268427202D012E402F143210ED
:400740003501368437103B803C883D203E025D065E805F10660867047A087D018102821085048B088E40930294049540964099019B019C409D149E309F10A4B1A588A684DA
:40078000A708B001B108C0E6C285C42DCAF0CCF4CEF8D6F0D860DE84E003E208E481007F04C5063A08960A6810FE12011CA31E5C200E22F02E0136FF3E40580459045C1037
:4007C0005F01800C8202841085048B018D01900B91019204940896019704981099019D019E0FA007A610A704A80CAA01AF02B00FB104B210B703BE04BF01D40FD804D9040E
:40080000DB04DF010022024003100404050108020A400B020D880E48118012801650171019801D011E201F0124402540270128402B082C202D8030803114350136843710B2
:4008400039403A203C243E405C425D085E20C03EC2F9C479CA55CCFECE7CD6F0E208E4040401050707080B300D10150F190A1B051E021F02200129042B012D01300231203A
:4008800032013303350C371038083E04520353025804590C5B045C115D105F01D804D904DC11DF0100080382054108200A400B110E400F14100113061421178019051B0238
:4008C000204021A42A802B082E402F8031A03304342035013780384039083A203F14680669406B04794084028D01924093159548982199409AA09B029D059F04A388AB02FA
:40090000B302C09DC27FC4ADCA9CCCBECE6EDE08E008EC20EE01580459045C115F018601A604AE02B001B204B402D602D73AD804D904DB0CDC11DD10DF010040010403806F
:40094000054108010A220B040E400F2410021318142118401A601B132B012F4031413211342035413B943E403F345B046104680269146A086B4071107286730979408C20FE
:400980008E108F1093849440951C962C9701980199409A209D119E029F40A388A402A711B340C09DC27FC4A7CA88CCBDCE7ED602D802DE08EE02101F1106131114101501D3
:4009C0001604171219071B081C061D181E111F032018220324012612280729102A082B04301F371F580459045C225F0189188A1F8B038C068D108E118F04922098109907D7
:400A00009A049B089C189D069E039F11A101A312A407A608A801A91FAA12B420B51FB61FD2BFD407D804D904DB04DC22DD20DF0101200301088009020B080D400E901114B9
:400A400014801502171819201A061E40221026402A022B042E102F04308031203480371938803B2059055A60688069946A016B197122720287208E858F4894809601972083
:400A800098449D209E029F20A220A304A520A608A708B004B301C003C2BBC476CA25CCFCCE0CD60FE050E202EC80EE0206011A0132013E044020410645D246544710483F1E
:400AC00049FF4AFF4BFF4DA04F045018580459045A045C115D025F01604062C06440654066C068C06AC06CC06EC0D804D904DC11DF010008018802800580074808040A04CC
:400B00000B800C440E0810411220130815081904284029802B082C402D80300432A0340536A139083B043F0442044804490950405101531486088D80910892049380948098
:400B40009502972898449B409D05A2A5A308A608AE01B104B340C0DDC2EEC42DCA9DCCFECE42D004D204E440ECA2EE011302168030023320364838083B803E807F60840239
:400B8000C430CCF0CE70E210860894089780A648B302E21012405A02A640A804AF40C410D640EA10EE80A640AE41E810EE4073207C4080408710DC01DE0457105801592065
:400BC0005E02660482048310860187208E0197109F20D403D603D801E0081810250150089410960197109D20A810AC01C608C801D4040A010B400F10410444018408850451
:400C000096019710A101A408A920C20ED0062080AE40C840EE40B04008200F04788087049C21A101AF40B020C203DC01EA01A901AC80B001EC0410061A021C0600AB010322
:400C4000100A000007010000000000000701060007000301000000000000100000303000300000004000003030003000C0000000C00C0C000000000000010100007C7E0035
:400C80000001000000000000000000000000000000000000000000000000000000000000000000000000000000000000000000000000000000000000000000000000000033
:400CC00000000000000000000000000000000000000000000000000000000000000000000000000000000000000000000000000000000000000000000000000000000000F4
:400D000000000000000000000000000000000000000000000000000000000000000000000000000000000000000000000000000000000000000000000000000000000000B3
:400D40000000000000000000000000000000000000000000000000000000000000000000000000000000000000000000000000000000000000000000000000000000000073
:400D80000000000000000000000000000000000000000000000000000000000000000000000000000000000000000000000000000000000000000000000000000000000033
:0200000490006A
:0400000000004007B5
:0200000490105A
:04000000BC90ACAF55
:0200000490303A
:02000000DACD57
:0200000490402A
:4000000000000000000000000000000000000000000000000000000000000000000000000000000000000000000000000000000000000000000000000000000000000000C0
:400040000000000000000000000000000000000000000000000000000000000000000000000000000000000000000000000000000000000000000000000000000000000080
:400080000000000000000000000000000000000000000000000000000000000000000000000000000000000000000000000000000000000000000000000000000000000040
:4000C0000000000000000000000000000000000000000000000000000000000000000000000000000000000000000000000000000000000000000000000000000000000000
:0200000490501A
:0C00000000012E16106900012E27EB36BF
:00000001FF