:400000000080002011000000650300006503000008B5044B1A6803F53F5302331A6000F0C1F900BFFA46004010B5054C237833B9044B13B10448AFF300800123237010BDED
:400040006081FF1F000000007C2B0000084B10B51BB108490848AFF300800848036803B910BD074B002BFBD0BDE81040184700BF000000006481FF1F7C2B0000C880FF1F84
:400080000000000000B59BB062B60121002000F045FC00F07BFC0028FBD000F08FFA00F09BFA00F0A1FA0246064901A801F0CAFD01A800F02DFD01A801F0BCFD642000F050
:4000C000ADFAEEE7802B0000F0B40022174611E050F82760F3B226F0FF0608E001EB420511F812406D78A5550132013BDBB2002BF4D10137172FEBD9F0BC704708B50A4643
:40010000002101F034FD08BDF8B5184B1B78DBB2174E3478E4B2174F3D78EDB203F00701154A11701B090132137044F00303337045F003033B702023A2F2627213708022DE
:400140000E490A7001F2D4710A700D4A1370082190321170033213700A2000F075FA3D7034704422074B1A70F8BD00BFCF010049F8460040F94600406E5800402D51004094
:40018000905A00407658004008B501F0E5FC08BD38B500242A4B1C801B2202331A70042228492948FFF7F0FF0622284B1A705222A3F580731A70264B1B78DBB2254A137077
:4001C000254B1C804FF4E16203F21E231A8041F25122023B1A8019250CE0204B1B7803F0010343EA440404F003044FF4F07001F047FC013D0DB1032CEFD1174A07231370C1
:40020000002317490B704820023108701370053213700222134B1A7004220A331A70124A137843F001031370013A137843F001031370013A137843F08003137038BD00BFA3
:4002400080400040F400004800410040004300400F010049A146004004400040254200400640004001400040A243004038B572B62C4A137843F00403137000240CE02A4D0D
:40028000630019194A0011462A44084691882858FFF734FF0134E4B2072CF0D923494FF09040FFF711FF224A137843F0020313701032137843F0020313701E4C237843F0D0
:4002C00040032370A2F58632513A137843F010031370082218491948FFF756FF0A2218491848FFF751FF082217491848FFF74CFF082217491748FFF747FF174A137843F021
:4003000008031370154D61232B70FFF741FF81232B70FFF7F9FE0E2221461148FFF734FF38BD00BFE8460040882B00006000004803500140A0430040D00000480251004054
:40034000D8000048F0510040E400004812510040EC000048225100402243004000480040B043004008B501F0CBFB03680C2B00D1FEE7FEE708B5094B1A681044084BC31AFE
:40038000802B02DC054B186005E001F0B9FB0C2303604FF0FF32104608BD00BFCC80FF1F7082FF1F08B5104E104D16E029686B68AC68002204E051F8040B43F8040B043248
:4003C000A242F8D1E868002203E0002143F8041B04328242F9D11035013E002EE6D101F095FBFFF74FFEFEE701000000E82D000008B5104A104B1A60104A136843F4007329
:40040000136000230AE0032B03D80D4A52F8231000E00C490C4A42F8231001332F2BF2D90A4B1A780A4B1A70074A0A4B1A60FFF71DFF08BD0004FA050CED00E014ED00E094
:4004400000000000650300000080FF1FBC760040C080FF1F08ED00E008B50A280FD00C2802D0082806D102E04FF4805209E04FF4807206E0002000F0CFF8002201E04FF4DE
:4004800080620021084B198042F2107303FB02F313F5806301D503F2FF73DB12034A13600022034B1A8008BD8C81FF1F9081FF1F8E81FF1F10B501F0EBFA04461E4A1378A0
:4004C00043F0010313701032137843F0010313701A3A137843F0010313701032137843F00103137002F5AA521232137843F0030313700422114B1A70013B1A7842F04002CF
:400500001A701A7802F0FC021A70C822053B1A700222A3F597530C3B1A70094A137843F0080313700A2000F08FF80122054B1A60204601F0B1FA10BDAB4300400659004031
:40054000275B004080E200E010B504460A280DD00C2802D0082804D101E0C42207E0442205E0002000F058F8C42200E08422034B1A702046FFF770FF10BD00BF02590040BF
:4005800008B5102000F03EF80721002000F07AF80749002000F062F8064A137843F0060313700C20FFF7D0FF0022034B1A8008BD01060000015900409481FF1F08B5054B89
:4005C0001B7823B9FFF7DCFF0122024B1A70FFF771FF08BD7C81FF1F024A137843F001031370704700590040034B188880B2034B1B88C01A00B27047A05B00408E81FF1FDE
:40060000704700BF034B1A7800F0F80010431870704700BF0241004001BE704710B5044605E0084B186801F02BFAA4F50044B4F5004FF6D8034B586800FB04F001F020FAAA
:4006400010BD00BFD080FF1F08B5034B1B7A00FB03F001F015FA08BDD080FF1F70B504460E46074B1D681F2802D90020FFF7D4FF04F01F04103455F8240045F8246070BD60
:4006800008ED00E038B504460D46072902D90020FFF7C2FF1F2C02D90020FFF7BDFF04F01F0000F1604000F564406D01EDB2057038BD00BF134B1B78DBB20360124A1278C7
:4006C00043EA02230360114A127843EA024303600F4A127843EA026303600E4B1B78DBB243600D4A127843EA022343600B4A127843EA024343600A4A127843EA02634360BA
:40070000704700BF0301004904010049EC4600400201004901010049000100490501004906010049F8B501F0B3F90746404A137843F0010313701032137843F001031370C9
:4007400001263C4B1E700225943B1D7002F5E2521B32137803F07F0313700020FFF774FF354C237803F0F9032370344A137803F0DF0313702378334323703046FFF764FFC4
:400780002820FFF761FF2E4B1A7802F07F021A701A7802F0BF021A7023782B4323702846FFF752FF237843F0040323700023254A137001321370384601F06EF9072117200B
:4007C000FFF760FF20491720FFF748FF07211820FFF758FF1D491820FFF740FF07211520FFF750FF1A491520FFF738FF07213046FFF748FF17493046FFF730FF0721284674
:40080000FFF740FF14492846FFF728FF07210320FFF738FF11490320FFF720FF07210C20FFF730FF0E490C20FFF718FFF8BD00BFA54300409D6000409443004012600040E6
:40084000F85100408460004019110000010F00001511000075100000A5100000D91000002111000008B5214B18700023204A1370204A1370204A1370204A1370204A1370A1
:40088000204A1370204A1370204B4FF400021A604FF080721A604FF400121A6002221A6004221A6008221A6011B1012906D00BE0174A137803F0FE0313700AE0144A1378F5
:4008C00043F00103137004E0114A137843F00103137003220F4B1A708022203B1A70012001F0CEF804220C4B1A7008BD4382FF1F4282FF1FB481FF1FB581FF1FB681FF1FC5
:400900004682FF1FB781FF1FB381FF1F00E100E009600040286000401260004038B504460D46064B1B7823B9FFF7FCFE0122034B1A7029462046FFF795FF38BD7D81FF1FA0
:4009400000230A4A13700A4A13700A4A13700A4A13700A4A13700A4A13700A4A13700322094B1A708022203B1A7070474282FF1FB481FF1FB581FF1FB681FF1F4682FF1F6E
:40098000B781FF1FB381FF1F28600040014B1878704700BFB581FF1F431EDBB2072B3CD8F0B4074600EB4004A3001C4C2344DB889BB2C3F500739A4208D900EB4002930003
:4009C0002344DA8892B2C2F5007292B200EB4004A300124C2344DB7843EA1223104D04012E192B55D3B2737039B909E0CE5C3D010C4C665501339BB200E000239A42F5D81D
:400A0000420002449300054A134400225A705A79D2B20001044B1A54F0BC7047D481FF1FFC5F004078600040FE5F00400246002001E0013080B2135C002BFAD1704700BF47
:400A400010B4FF2400230EE0094AD25C02EB42029100084A11448A7AD2B2824201D11C4602230133DBB2012BEED9204610BC7047A081FF1FD481FF1F10B5204C2079FFF7E0
:400A8000DFFF237813F0800F0ED06378DBB2212B2FD11B4B07221A80C0EBC000194A1044586000F09BFA10BD144B5B78DBB2202B02D0222B10D01EE0114A07231380C0EB7A
:400AC000C00310490B4453600F4A135C43F00103135400F0ABFA10BD084B9B780B4A22F81030094A135C43F00203135400F034F910BD002010BD002010BD00BF0060004077
:400B0000C481FF1FE080FF1FA881FF1FAC81FF1F2DE9F8438046234B1B78234AD65CF6B2FFF784FF05460027344606EB460293001E4A13441B899BB29D4209D906EB460208
:400B400093001A4A1344B3F808901FFA89F900E0A9464A4608EB07013046FFF71DFFC9EB0505ADB245B906EB460293000F4A13441B899BB2994510D14F44BFB204EB4402E7
:400B800093000A4A13445B7813F0FF0FF6D025B9002211463046FFF7FFFE002DC4D1BDE8F88300BF7E81FF1F9881FF1FD481FF1FC37803F0030390F9020000280FDA032B27
:400BC00006D002F001030B48C15442F001020EE0C2F380030848C15442F0040207E0032B05D0C2F340030548C15442F002021046704700BF9881FF1FA081FF1F9C81FF1FD2
:400C00001D4B19781D4A13889BB20B449BB2138000220FE01A494B681B78DBB2194883544B6801334B600132D2B20B889BB2013B9BB20B80124B1B889BB20BB1072AE9D985
:400C40000D4B1B78DBB2082B00D05AB10E490B7883F080030B700F210C4B197002210C4B197004E0022309490B7009490B70094B1A70014B1A707047B381FF1F4082FF1F50
:400C8000C481FF1F00600040B881FF1FB281FF1F4282FF1FD081FF1F0222074B1A708022064B1A700F22064B1A700023054A1370054A1370012070474282FF1FB881FF1FD7
:400CC000B281FF1FB381FF1FD081FF1F08B5FFF797FF08BD10B4194B197801F00F010239C9B2174A13889BB20B449BB21380002011E0144A5468144B1B5CDBB22370536810
:400D0000013353600130C0B20139C9B213889BB2013B9BB213800B4B1B889BB20BB10029E7D10A4B19700A4A137883F0800313700B22084B1A7010BC704700BF2960004042
:400D40004082FF1FC481FF1F00600040D081FF1FB881FF1FB281FF1F0623064A1370064A13708022054B1A700022054B1A700120704700BF4282FF1FB281FF1FB881FF1F11
:400D8000D081FF1F064B9B6843B1054B9A6810709A6804490988518000229A60704700BFC481FF1F4082FF1F08B5134B1A78D2B21A701B78DBB213F0800F02D00F4A137009
:400DC00008BD0220FFF7DEFF0D4B1B7803F06003202B05D0402B06D043B900F093FC06E000F05EFE03E000F037FE00E0002010B90322024B1A7008BD28600040B281FF1F3F
:400E00000060004008B5094B1978094A13889BB20B449BB213800022064B1A700120FFF7B1FF0322044B1A7008BD00BFB381FF1F4082FF1F4282FF1FB281FF1F08B50B4B48
:400E40001B78DBB2042B06D0062B07D0022B0BD1FFF7D8FF08BDFFF73DFF08BD0320FFF791FF0322024B1A7008BD00BF4282FF1FB281FF1F08B50022044B1A700120FFF788
:400E800081FF0322024B1A7008BD00BF4282FF1FB281FF1F08B50B4B1B7813F0FF0F07D0084A137843F0800307490B70002313700022064B1A700120FFF764FF0322044B82
:400EC0001A7008BD4682FF1F086000404282FF1FB281FF1F08B5094B1B78DBB2042B06D0062B07D0022B07D1FFF7F0FE08BDFFF7C1FF08BDFFF7CEFF08BD00BF4282FF1F52
:400F000008B5284B1B78DBB213F0100F48D013F0800F0CD003F00F03012B16D1FFF744FF214B1B7813F0800F11D1012312E013F0400F03D0FFF7CEFF01230BE013F0200FB6
:400F400007D0FFF77BFF012304E0002302E0002300E0002323B3134B1B7813F0800F1FD1124B1B78124A12781343124A13701278D2B2934214D10C4B1B78DBB2094A127887
:400F800012F0800F07D1084B1B78DBB2054A1370137803F00F03044A1278D2B29342EAD108BD00BF28600040B281FF1FB881FF1FD081FF1F296000400022064B1A80064B7D
:400FC0009B682BB1044A916800230B7092685380704700BF4082FF1FC481FF1F08B50F4B1B889BB213B9FFF757FE15E002220C4B1A7000220B4B1A70FFF7DEFF0A4AD1791C
:40100000937943EA0123054A128892B2934201D2024A1380FFF7F4FD012008BDC481FF1F4282FF1FB881FF1F0060004008B504220B4B1A7080220B4B1A70FFF7BDFF0A4A4B
:40104000D179937943EA0123084A128892B2934201D2064A13800B22054B1A70012008BD4282FF1FB881FF1F00600040C481FF1FB281FF1F0122094B1A700F3B9B7C084BDF
:401080001B7B03F00303934204D0054AD37B83F08003D3730122024B5A7370470B600040D481FF1F02220A4B1A700F3B93F82230084B1B7E03F00303012B04D0054AD37E5E
:4010C00083F08003D3760122024B5A76704700BF0B600040D481FF1F04220C4B1A700F3B93F832300A4B93F8243003F00303012B06D0074A92F8273083F0800382F8273077
:401100000122034B83F82520704700BF0B600040D481FF1F704700BF08B5FFF711FC08BD08B500F0A5FC08BD70B588B0054603AC174E0FCE0FC43368237035B322232B707A
:4011400003236B7001A8FFF7B5FA002402231AE008AA224412F81C2C08A901EB121111F8141CE954581C00212954981C02F00F0208AE324412F8142C2A54DA1CA954013458
:40118000E4B20433DBB2212BE2D908B070BD00BFB82B000010B401233EE019461A010C242148845403EB4300820020480244527912F0FF0F13D003EB430082001B480244DB
:4011C000127912F0800F04D01801194A024494700AE01801164A02440820907004E01801134A0244802090704800084482000F480244D488E4B208010B4901448C71D0888C
:40120000C0F30720C871D088C0B20871D288C2F307224A710133DBB2082BBED9FF22054B1A7010BC704700BF70600040D481FF1FFC5F00400A600040074B1A78074B03EBB1
:40124000C2035B681A7C824204D9C0001030184440687047002070474382FF1FCC2B0000F8B5404B1B7813F0FF0F79D03D4B18780138C0B2FFF7E0FF047AC2683A4B1878C9
:40128000C0B200236AE01178884264D13749095CC9B25578A9425ED1917801F07F01D67806F00306DFF8C8E04D000D44AF000EEB07054FF0000C85F803C092F802C085F894
:4012C00004C092F803C00EF807C097882F8192F90250002D0DDA012E01D1072700E00D274E000E44B500224E35446F7101266E700CE0012E01D1052700E009274E000E4421
:40130000B5001B4E35446F7100266E70DFF868E00F010EEB07060125B57001FA05F529448D00134929440D89C5F307250EF807500D89EDB27570CE88F6B20E4D3D44AE7110
:40134000CE88C6F30726EE71CE88F6B22E71C988C1F30721697108320133DBB2A34292D3F8BD00BFB581FF1FB681FF1FC081FF1FD481FF1F70600040FC5F0040034B1A786F
:40138000034B03EBC2035868704700BF4382FF1FCC2B000008B5084B18780138C0B2FFF74BFF30B142681279023200EBC203586808BD002008BD00BFB581FF1F2DE9F047CD
:4013C000002310E0724D5900CA189600AC190022AA55A270E2702281A272627034462C4462710133DBB2082BECD940B90AE000226849CA546849CA540133DBB200E000239A
:40140000012BF4D9654B1B7813F0FF0F00F0BD80624B18780138C0B2FFF70EFF80464368DB7913F0400F05D05D4A137843F00103137004E05A4A137803F0FE03137098F855
:4014400008704FF0000A01266FE0D8F80C50002467E0AB7803F07F039E425FD1314606EB460083004A4803441B899BB2A888834206D206EB460E4FEA8E03454A13441881A0
:401480002B784448C35CDBB26878834246D195F802C0DFF8FCE04B000B4498000EEB000383F804C0EB780EF80030EB7803F0030395F90200002813DA012B02D14FF007093E
:4014C00001E04FF00D09DFF8C8E04B0003EB010C4FEA8C00704480F805900121417012E0012B02D14FF0050901E04FF00909DFF8A0E04B0003EB010C4FEA8C00704480F89A
:40150000059000214170AB790A2B01D0022B05D1524631462846FFF74BFB824608350134E4B2BC4295D30136F6B2082E8DD9D8F80C0000220CE0837803F07F0310F8084BF8
:4015400003EB43039900124B19448C720132D2B2BA42F0D3FFF71EFF124B1860002301210FE00B4D4A00501884002C44E380228992B213449BB203F0010213449BB2013194
:40158000C9B20829EDD9FFF705FEBDE8F08700BFD481FF1FC081FF1FB081FF1FB581FF1FB781FF1FBC81FF1F08B5154B1B7903F07F035A1ED2B2072A20D8590019448A0034
:4015C00010490A44917841F0010191700021D170517841F002015170127912F0800F05D01B01094A1A448D23937004E01B01064A1A4489239370FFF7AFFB08BD002008BDCF
:4016000000600040D481FF1FFC5F0040274B1B7903F07F035A1ED2B2072A44D810B5590019448A0022490A44917801F0FE0191700021D1701F4C1801215C01F07F01215437
:40164000517801F0FD015170127912F0800F13D003EB43018A0016490A445278D2B2012A04D1224602440C23937019E01B01114A1A440D23937013E003EB43018A000C4956
:401680000A445278D2B2012A05D11B01094A1A440823937004E01B01064A1A4409239370FFF75AFB10BD0020704700BF00600040D481FF1FFC5F004010B50E4B1C79E4B210
:4016C0000D4B18780138C0B2FFF7B6FD43681B799C4201D9022C0AD8084A135DDBB208490B55044B9B78DBB21355012010BD002010BD00BF00600040B581FF1FC081FF1F63
:40170000B081FF1F10B59C4B1B78DBB200219B4A118013F0800F00F0AD80974A5278D2B20A2A00F27481DFE812F06900720172017201720172010B007201920072019A0070
:401740008D4BDB78DBB2012B09D1FFF717FE42688A4B5A6012221A80FFF740FC10BD864BDB78DBB2022B13D1834B9878FFF764FD002800F04E814268804B5A605A68D17882
:401780005A68927842EA01221A80FFF727FC10BD794BDB78DBB2032B05D02CE00A7811440133DBB201E000237549734A9278D2B2934203D20A7812F0FF0FEFD16E4B9B786E
:4017C00013F0FF0F0BD06C4B9B78DBB26D4A127C934204D16C4C2046FFF7A6FC21460B7813F0FF0F00F017810B78644A13805160FFF7F4FB10BD00F053F910BD13F0030345
:4018000017D0022B40F009815C490B805A4B1B7903F07F0303EB43039A005C4B1A449278D2B25B4B1A7000225A704B60FFF7D6FB10BD524902230B80564B1A78D2B2544B9F
:401840001A7000225A704B60FFF7C8FB10BD4B4B01221A80504A5A60FFF7C0FB10BD474A01231380444B1B794C490B445360FFF7B5FB10BD404A5278013A0A2A00F2CF8023
:40188000DFE812F04C00CD009800CD000B00CD00CD00CD001300CD003000374B9B78DBB23F4A1370FFF758FA10BD334B9B7803F0FF041BB1601EC0B2FFF7BEFC04B110B9AB
:4018C000002C40F0AE80344B1B78DBB29C4206D0314B1C700120334B1870FFF76FFDFFF73BFA10BDFFF7E8FE002800F09C80224A1379DBB21279D2B22B490A702B4AD25C4D
:40190000D2B22649CB5CDBB29A4204D00122254B1A70FFF7A5FCFFF71FFA10BD03F00303012B17D04BB1022B7FD1134B9B7813F0FF0F7CD1FFF76AFE10BD0F4B9B78DBB247
:40194000012B76D1134A137803F0FD031370FFF703FA10BD084B1B79DBB2012B6BD8064B98781B79DBB21249CA5C22EA0002CA54FFF7F2F910BD00BF00600040C481FF1F54
:40198000342C0000182D00004882FF1FD481FF1F8081FF1FB781FF1FB581FF1FC081FF1F4682FF1FB481FF1FB681FF1FB081FF1F4482FF1F03F00303012B17D04BB1022B09
:4019C0003BD1224B9B7813F0FF0F38D1FFF7ECFD10BD1E4B9B78DBB2012B32D11C4A137843F002031370FFF7B7F910BD174B1B79DBB2012B27D8154B98781B79DBB21549A1
:401A0000CA5C22EA0002CA54FFF7A6F910BD002010BD002010BD002010BD002010BD002010BD002010BD002010BD002010BD002010BD002010BD002010BD002010BD0020B6
:401A400010BD002010BD002010BD00BF00600040B781FF1F4482FF1F044B1B7813F0800F01D0024B5B780020704700BF00600040024B1878C0F38010704700BF8F450040E1
:401A80000230800803D000BF01380046FCD17047EFF3108072B6704780F31088704700BF08B5144B1B7803F00303012B02D0022B04D00FE00F4B1B79DBB20CE00D4B1B791C
:401AC00003F07F0303EB43039A000B4B1A44937ADBB200E00023022B07D8084A1268D35C022B04D1FEF7C8FF08BD002008BD002008BD00BF00600040D481FF1FBC81FF1FD1
:401B0000014B1868704700BF5C81FF1F0E4B70B51E460E4C0025E41AA410A54204D056F8253098470135F8E701F04CF9084B094C1E46E41AA4100025A54204D056F825308C
:401B400098470135F8E770BDD02D0000D02D0000D02D0000D82D000010B5431E0A44914204D011F8014B03F8014FF8E710BD03460244934202D003F8011BFAE770470000FC
:401B800070B50E46054618B183690BB900F030FAAB69AC6813B9284600F02AFA224B9C4201D16C6808E0214B9C4201D1AC6803E01F4B9C4208BFEC68A3891B0701D5236959
:401BC0003BB92146284600F0B5F810B14FF0FF3070BD013EA36816F8011F013BA36091B1002B04DAA269934206DB0A2904D023685A1C22601970EDE72246284600F046F875
:401C00000130E7D1E2E7002B08DA22460A21284600F03CF80130D9D00A2070BD23680A205A1C2260187070BD302D0000502D0000702D0000024B01461868FFF7A1BF00BF8D
:401C40005C81FF1F0EB400B54FF402719CB0ADF814106FF00041049107914FF6FF711DAB02900690084853F8042BADF81610006802A9019300F0AAFB029B00221A701CB0CF
:401C80005DF804EB03B070475C81FF1FF8B50F461446064618B183690BB900F0A9F9224B9C4201D1746808E0204B9C4201D1B46803E01F4B9C4208BFF468A369A360A38927
:401CC0001A0709D523693BB123682069FDB2181A636998420FDB08E02146304600F02AF80028F1D04FF0FF30F8BD2146304600F015F90028F6D1A368013BA36023685A1CF0
:401D000022601F706269431C934204D0A389DB0707D50A2D05D12146304600F0FFF80028E0D12846F8BD00BF302D0000502D0000702D0000324B70B51D6806460C4625B137
:401D4000AB6913B9284600F053F92E4B9C4201D16C6808E02C4B9C4201D1AC6803E02B4B9C4208BFEC68B4F90C309AB215071DD4D00602D4092232603AE0510712D5616B97
:401D800041B104F14403994202D0304600F01AFA00236363A38923F02403A3810023636023692360A38943F00803A38123694BB9A38903F42073B3F5007F03D021463046BB
:401DC00000F0C4F9A28912F0010305D00023A36063695B42A36103E0920758BF6369A36023695BB9B4F90C3003F0800080B230B143F04003A3814FF0FF3070BD002070BDAA
:401E00005C81FF1F302D0000502D0000702D00008A892DE9F041054610070C4659D44B68002B02DC0B6C002B17DDE66AAEB102F48052002392B22F682B600AB1606D15E026
:401E4000216A01232846B047411C0FD12B686BB11D2B01D0162B03D12F600020BDE8F081A38943F04003A381BDE8F081A3895A0705D56368C01A636B0BB1236CC01A002371
:401E80000246E66A216A2846B047431CA38906D129681D2939D8204ACA40D60735D5002262602269D904226004D5421C01D12B6803B96065616B2F600029CED004F14403AC
:401EC000994202D0284600F07DF900206063BDE8F0810F69002FC0D093070E680CBF4B690023C7EB06080F608B6002E00744C0EB0808B8F1000FB0DD43463A46216A284636
:401F0000A66AB0470028F1DCA38943F04003A3814FF0FF30BDE8F0810100402038B50B6905460C46DBB118B183690BB900F060F80C4B9C4201D16C6808E00B4B9C4201D1E6
:401F4000AC6803E0094B9C4208BFEC68B4F90C302BB121462846BDE83840FFF759BF002038BD00BF302D0000502D0000702D0000014900F0A9B800BF1D1F000010B5044668
:401F8000002303604360836081814366C281036143618361194608225C30FFF7E8FD054B24626362044BA362044BE362044B236310BD00BF0D2900002F2900006729000049
:401FC0008B29000070B568234D1E5D430E4605F1740100F043F9044640B1002180E842000C30A06005F16802FFF7C1FD204670BD836910B5044633BB8364C3640365124BE2
:40200000124A1B688262984204BF0123836100F01FF86060204600F01BF8A060204600F017F80022E06004216068FFF7A7FF01220921A068FFF7A2FF02221221E068FFF737
:402040009DFF0123A36110BD2C2D0000711F0000F8B51C4B07461E68B36913B93046FFF7C7FF4836B4687368013B04D4B4F90C507DB16834F8E733680BB13668F2E70421B7
:402080003846FFF79FFF30600028F6D10C233B60F8BD4FF6FF73E3810123A38165662560A560656025616561A5610822294604F15C00FFF75CFD6563A563A564E564204680
:4020C000F8BD00BF2C2D00002DE9F8438046894600F14804002694B1A5686768013F0CD4AB89012B07D9B5F90E30013303D029464046C84706436835F0E72468EBE73046C1
:40210000BDE8F88370B50E46B1F90E1090B0002914461D4606DA00232B60B3891A060ED540230EE001AA00F057FC0028F3DB029A02F47042A2F500535A425A412A604FF4E4
:4021400080630020236010B070BD00008B8973B59E0705460C4610D401AB6A46FFF7D2FF00990646284600F079F868B9B4F90C309A0522D443F00203A38104F147032360F6
:4021800023610123636118E00D4BAB62A389206043F08003A381009B20616361019B4BB1B4F90E10284600F029FC18B1A38943F00103A381A0893043A08102B070BD00BF5F
:4021C000711F000038B50546002944D051F8043C0C1F002BB8BFE41800F05BFC1E4A1368114613B96360146030E0A3420DD92268A018834201BF18685B68121822606360B0
:402200000C6023E0A24203D813465A68002AF9D118681918A1420BD12168014458188242196013D110685268014419605A600DE002D90C232B6009E021686018824201BFF8
:40224000106852680918216062605C602846BDE8384000F01FBC38BD8881FF1F70B5CD1C25F0030508350C2D38BF0C25002D064601DBA94202D90C23336046E000F009FCD9
:40228000234B1C681A462146A1B10B685B1B0ED40B2B03D90B60CC18CD501EE08C420BBF63684B681360636018BF0C4615E00C464968E9E7174C23681BB9304600F016FB56
:4022C00020602946304600F011FB431C18D0C41C24F00304A0420DD12560304600F0DAFB04F10B00231D20F00700C31A0ED05A42E25070BD211A304600F0F8FA0130EBD12E
:402300000C233360304600F0C5FB002070BD00BF8881FF1F8481FF1F2DE9F0478E6882469E420C46914698463ED88A8912F4906F3AD02568096902236F1A656905EB450580
:4023400095FBF3F57B1C43449D4238BF1D4653050FD52946FFF782FF064698B13A462169FFF7FAFBA38923F4906343F08003A38113E02A4600F08FFB064670B92169504660
:40238000FFF720FF0C23CAF80030A3894FF0FF3043F04003A381BDE8F08726613E44266046466561ED1BA560464528BF464649463246206800F052FBA36800209B1BA360FB
:4023C00023681E442660BDE8F08700002DE9F04F9DB003938B8980461C060D4616460DD50B695BB94021FFF739FF2860286118B90C23C8F80030CDE040236B6100230993D6
:4024000020238DF82930DFF89CB130238DF82A3037463C4614F8013B1BB9B7EB060910D003E0252BF9D02746F3E74B46324629464046FFF771FF013000F0A780099B4B4457
:4024400009933B78002B00F0A08000234FF0FF3204930793059206938DF853301A930126052221784E4800F0EBFA671C049B38B14B4A3C46801A06FA00F018430490EFE766
:40248000D90644BF20228DF853201A0744BF2B228DF8532022782A2A03D0079A00210A200BE0039A111D12680391002A10DA524243F00200079204900BE027463B780134DC
:4024C000303B092B03D800FB02320121F5E701B107923B782E2B1ED17B782A2B0AD1039B02371A1D1B680392002BB8BF4FF0FF33059310E0002319460593781C0A240746E2
:402500003A780130303A092A03D804FB01210123F5E703B1059103223978224800F090FA40B14023CBEB000003FA00F0049B013718430490397806221B487E1C8DF82810CB
:4025400000F07EFA88B1194B33B9039B073323F007030833039314E003AB00932A46144B04A94046AFF3008007E003AB00932A460F4B04A9404600F093F8B0F1FF3F824604
:4025800003D0099B5344099342E7AB895B0601D4099801E04FF0FF301DB0BDE8F08F00BF902D0000962D00009A2D000000000000192300002DE9F04791461F460A698B68CC
:4025C00006469342B8BF1346C9F8003091F843200C46DDF8208012B10133C9F800302368990642BFD9F800300233C9F80030256815F0060510D104F1190A07E001235246D3
:4026000039463046C04701301AD00135E368D9F800209B1A9D42F1DB94F843302268003318BF012392060FD5E118302081F843005A1C94F845102244023382F8431003E0D7
:402640004FF0FF30BDE8F08704F1430239463046C0470130F4D02268D9F80050E36802F00602042A08BF5D1B2269A3680CBF25EAE57500259342C4BF9B1AED184FF00009FF
:402680001A344D4509D00123224639463046C0470130D5D009F10109F3E70020BDE8F0872DE9F04317460A7E85B06E2A984606460C460C9B01F1430E00F0AE8011D8632AF4
:4026C00022D009D8002A00F0BB80582A40F0CA8081F84520834955E0642A1ED0692A1CD0C0E0732A00F0B08009D86F2A2ED0702A40F0B8800A6842F020020A603EE0752A18
:4027000024D0782A3AD0ADE01A6801F14205111D1960136884F84230A8E021681A6811F0800F02D0111D196008E011F0400F02F10401196002D0B2F9003000E01368002B29
:402740003CDA2D225B4284F8432037E021681A6811F0800F02D0111D196007E011F0400F02F10401196001D0138800E01368227E5C496F2A14BF0A2208221BE078225A499F
:4027800084F845202268186812F0800F00F104051D6003D1550601D5038800E00368D00744BF42F0200222601BB9226822F0200222601022002084F8430001E049490A22D7
:4027C0006568002DA56008DB206820F0040020602BB9002D7DD175460CE0002B79D07546B3FBF2F002FB1033CB5C05F8013D03460028F5D1082A0BD12368DA0708D523695A
:4028000062689A42DEBF302305F8013C05F1FF35C5EB0E0323612EE008681A6810F0800F496903D0101D1860136808E010F0400F02F104001860136801D0198000E0196041
:4028400000232361754616E01A68111D1960156800216268284600F0F3F808B1401B6060636804E004F1420584F8422001232361002384F84330CDF800803B4603AA2146F5
:402880003046FFF797FE013002D14FF0FF3026E023692A4639463046C0470130F5D023689B0710D5002504F1190907E001234A4639463046C0470130E7D00135E368039AC6
:4028C0009B1A9D42F2DBE068039B9842B8BF184605E00B7804F1420584F842308AE705B0BDE8F083A12D0000B22D000038B5064C0023054608462360FDF73CFD431C02D188
:40290000236803B12B6038BD6C82FF1F10B50C46B1F90E1000F0E6F80028ABBF636DA3891B1823F48053ACBF6365A38110BD2DE9F0411F468B890546DB050C46164605D5DD
:4029400002230022B1F90E1000F068F8A389324623F48053A381B4F90E103B462846BDE8F04100F017B810B50C46B1F90E1000F055F8431CA38915BF606523F4805343F496
:402980008053A38118BFA38110BDB1F90E1000F013B8000038B5074C054608461146002222601A4600F0E2F8431C02D1236803B12B6038BD6C82FF1F38B5064C002305462D
:4029C0000846236000F0AAF8431C02D1236803B12B6038BD6C82FF1F38B5074C0023054608461146236000F0A1F8431C02D1236803B12B6038BD00BF6C82FF1F38B5064C1D
:402A0000002305460846236000F098F8431C02D1236803B12B6038BD6C82FF1F38B5074C054608461146002222601A4600F08EF8431C02D1236803B12B6038BD6C82FF1F33
:402A400010B5C9B202449042034605D01C7801308C42F8D1184610BD002010BD884210B501EB020301D8421E0BE09842FBD28118D21AD34204D013F8014D01F8014DF8E734
:402A800010BD994204D011F8014B02F8014FF8E710BD70477047F8B5074615460E4621B91146BDE8F840FFF7D9BB1AB9FFF78AFB2846F8BD00F028F885420ED92946384684
:402AC000FFF7CCFB044650B131462A46FFF744F831463846FFF776FB01E03046F8BD2046F8BD000038B5074C054608461146002222601A4600F032F8431C02D1236803B173
:402B00002B6038BD6C82FF1F51F8040C0028BEBF091851F8043CC01804387047024B58221A604FF0FF3070476C82FF1F024B58221A604FF0FF3070476C82FF1F024B5822EB
:402B40001A600020704700BF6C82FF1F024B58221A604FF0FF3070476C82FF1F024B58221A604FF0FF3070476C82FF1F024B58221A604FF0FF3070476C82FF1F00000000E3
:402B800025640D0A00000000004F00400C00305100404000C0510040100000000140001000140140000800400140000A004C01400002005001402000303132333435363763
:402BC00038394142434445460000000001000000D42B000001000000182D0000000000000000000001000000EC2B000001000000D42C000003000000182C00000000000029
:402C000000000000000000000000000000000000142C0000020A000000008103080002000100820240000A000100030240000A0002030000040309042C0343007900700027
:402C400072006500730073002000530065006D00690063006F006E0064007500630074006F0072001003550053004200550041005200540038034300440043002000430077
:402C80006F006D006D0075006E00690063006100740069006F006E00200049006E0074006500720066006100630065002603430044004300200044006100740061002000A3
:402CC00049006E0074006500720066006100630065000000090243000201018032090400000102020103052400100104240202052406000105240100010705810308000AC6
:402D000009040100020A0000040705820240000007050302400000001201000202000008B40432F20100010280014300FC80FF1F00000000000000000000000000000000F7
:402D40000000000000000000000000000000000000000000000000000000000000000000000000000000000000000000000000000000000000000000000000000000000053
:402D800000000000000000000000000000000000232D302B2000686C4C006566674546470030313233343536373839414243444546003031323334353637383961626364EB
:402DC00065660000F8B500BFF8BC08BC9E4670474D000000F1030000F8B500BFF8BC08BC9E46704729000000F82D0000C880FF1F9800000010010000000000007082FF1F5C
:402E00000000E02EC05D00001800000000366E0100C2010000000800C201000000080000A1200000000002000000000000000000302D0000502D0000702D000000000000DA
:402E40000000000000000000000000002A2D0000000000000000000000000000000000000000000000000000000000000000000000000000000000000000000000000000FB
:402E8000000000000000000000000000FC80FF1F00000000000000000000000000000000000000000000000000000000000000000000000000000000000000000000000078
:402EC00000000000000000000000000000000000000000000000000000000000000000000000000000000000000000000000000000000000000000000000000000000000D2
:402F00000000000000000000000000000000000000000000000000000000000000000000000000000000000000000000000000000000000000000000000000000000000091
:402F40000000000000000000000000000000000000000000000000000000000000000000000000000000000000000000000000000000000000000000000000000000000051
:402F80000000000000000000000000000000000000000000000000000000000000000000000000000000000000000000000000000000000000000000000000000000000011
:020000040003F7
:0200000480007A
:4000000001450040014F00400152004001010140010301400107014002090140040A0140010B0140010D0140010F0140011701400119014007400140054101400442014074
:40004000044301400144014002450140044601400747014002480140014C0140015101407E020A4B7C40E204E602EE0CAF20EE04B820BE10D804DF011F20E602E204EE02AB
:40008000EE0230023320340236408002CCF0E22084029C02A640A720E6406302A640A720D640A640AB20AF01EE308240848096401B0496409C80C60808800B400E409640CF
:4000C0009C80AB04C20EAE40EE40AF4000AB000000000000000030004000000000000000C0000000000B0B00000000000000000000008000170018010000000000000000B9
:4001000000000000000000000000000000000000000000000000000000000000000000000000000000000000000000000000000000000000000000000000000000000000BF
:40014000000000000000000000000000000000000000000000000000000000000000000000000000000000000000000000000000000000000000000000000000000000007F
:40018000000000000000000000000000000000000000000000000000000000000000000000000000000000000000000000000000000000000000000000000000000000003F
:4001C00000000000000000000000000000000000000000000000000000000000000000000000000000000000000000000000000000000000000000000000000000000000FF
:0200000490006A
:0400000000004005B7
:0200000490105A
:04000000BC90ACAF55
:0200000490303A
:02000000FB0300
:0200000490402A
:4000000000000000000000000000000000000000000000000000000000000000000000000000000000000000000000000000000000000000000000000000000000000000C0
:400040000000000000000000000000000000000000000000000000000000000000000000000000000000000000000000000000000000000000000000000000000000000080
:400080000000000000000000000000000000000000000000000000000000000000000000000000000000000000000000000000000000000000000000000000000000000040
:4000C0000000000000000000000000000000000000000000000000000000000000000000000000000000000000000000000000000000000000000000000000000000000000
:0200000490501A
:0C00000000012E16106900012E270B6C69
:00000001FF