:400000000080002011000000290400002904000008B5044B1A6803F53F5302331A6000F023FA00BFFA46004010B5054C237833B9044B13B10448AFF300800123237010BD00
:400040006081FF1F0000000008260000084B10B51BB108490848AFF300800848036803B910BD074B002BFBD0BDE81040184700BF000000006481FF1F08260000C880FF1F76
:400080000000000008B50C4B1A6840F2E6339A420BDC00F003FB00F00DFB074A136802EB830148600133136008BD00F0D5FB0122014BC3F8A42F08BD7C81FF1F10B50446B9
:4000C00000F04EFE0028FBD0002384F83F30212384F83E30204601F08FFE81B2204600F017FE10BD6423002105E050F82320914200DA11460133B3F5617FF6DB0846704798
:4001000030B59BB01E4801F0B9FD62B60121002000F004FD00F03AFD0028FBD000F0B0FA00F0F2FB174BD3F8A43F012B23D1154D281DFFF7D7FF04460246134901A801F07B
:4001400037FE01A8FFF7BAFF0023C5F8A43FB4F5167F03DD012001F09FFD02E0002001F09BFD0021074840F8041B4FF47A6201F016FE00F0C9FB4FF47A7000F0D5FAD1E795
:40018000850000007C81FF1F0C260000F0B40022174611E050F82760F3B226F0FF0608E001EB420511F812406D78A5550132013BDBB2002BF4D10137182FEBD9F0BC7047E3
:4001C00008B50A46002101F0EAFD08BDF8B5184B1B78DBB2174E3478E4B2174F3D78EDB203F00701154A11701B090132137044F00303337045F003033B702023A2F2627280
:40020000137080220E490A7001F2D4710A700D4A1370082190321170033213700A2000F099FA3D7034704422074B1A70F8BD00BFCF010049F8460040F94600406E58004048
:400240002D510040905A00407658004008B501F09BFD08BD38B540F65F122A4B1A80192502331D70042228492848FFF7EFFF0622274B1A705222A3F580731A70254B1B783F
:40028000DBB2254A13700024244B1C804FF4E16203F21E231A8041F25122023B1A800CE01F4B1B7803F0010343EA440404F003044FF4F07001F0FCFC013D0DB1032CEFD1F6
:4002C000164A07231370002316490B704820023108701370053213700222134B1A7004220A331A70114A137843F001031370013A137843F001031370013A137843F080030F
:40030000137038BD804000402801004800410040004300400F010049A146004004400040254200400640004001400040A243004038B572B62C4A137843F004031370002402
:400340000CE02A4D630019194A0011462A44084691882858FFF734FF0134E4B2072CF0D923494FF09040FFF711FF224A137843F0020313701032137843F0020313701E4C7A
:40038000237843F040032370A2F58632513A137843F010031370082218491948FFF756FF0A2218491848FFF751FF082217491848FFF74CFF082217491748FFF747FF174A50
:4003C000137843F008031370154D61232B70FFF741FF81232B70FFF7F9FE0E2221461148FFF734FF38BD00BFE8460040142600006400004803500140A043004004010048A9
:40040000025100400C010048F0510040180100481251004020010048225100402243004000480040B043004008B501F081FC03680C2B00D1FEE7FEE708B5094B1A68104484
:40044000084BC31A802B02DC054B186005E001F06FFC0C2303604FF0FF32104608BD00BFCC80FF1F1892FF1F08B5104E104D16E029686B68AC68002204E051F8040B43F82D
:40048000040B0432A242F8D1E868002203E0002143F8041B04328242F9D11035013E002EE6D101F04BFCFFF72BFEFEE7010000001028000008B5104A104B1A60104A136817
:4004C00043F40073136000230AE0032B03D80D4A52F8231000E00C490C4A42F8231001332F2BF2D90A4B1A780A4B1A70074A0A4B1A60FFF71DFF08BD0004FA050CED00E00B
:4005000014ED00E000000000290400000080FF1FBC760040C080FF1F08ED00E008B50A280FD00C2802D0082806D102E04FF4805209E04FF4807206E0002000F0F3F8002277
:4005400001E04FF480620021084B198042F2107303FB02F313F5806301D503F2FF73DB12034A13600022034B1A8008BD3491FF1F3891FF1F3691FF1F10B501F0A1FB0446CF
:400580001E4A137843F0010313701032137843F0010313701A3A137843F0010313701032137843F00103137002F5AA521232137843F0030313701822114B1A70013B1A787B
:4005C00042F040021A701A7802F0FC021A70CE22053B1A700222A3F597530C3B1A70094A137843F0080313700A2000F0B3F80122054B1A60204601F067FB10BDAB430040BB
:4006000006590040275B004080E200E010B504460A280DD00C2802D0082804D101E0C22207E0422205E0002000F07CF8C22200E08222034B1A702046FFF770FF10BD00BFDE
:400640000259004008B5102000F062F80721002000F09EF80749002000F086F8064A137843F0060313700820FFF7D0FF0022034B1A8008BD0D070000015900403C91FF1F0D
:4006800008B5054B1B7823B9FFF7DCFF0122024B1A70FFF771FF08BD2491FF1F034B188880B2034B1B88C01A00B27047A05B00403691FF1F10B4124B1B881BB233B1104BB1
:4006C0001B881BB203EB83035C0001E00D4B1C680D4B1988411A09B242F2107303FB01F2002903DD04EBD470401003E004EBD47040104042831893FBF4F000B210BC704790
:400700003491FF1F3891FF1F3C91FF1F704700BF034B1A7800F0F80010431870704700BF0241004001BE704710B5044605E0084B186801F0BDFAA4F50044B4F5004FF6D86A
:40074000034B586800FB04F001F0B2FA10BD00BFD080FF1F08B5034B1B7A00FB03F001F0A7FA08BDD080FF1F70B504460E46074B1D681F2802D90020FFF7D4FF04F01F04D6
:40078000103455F8240045F8246070BD08ED00E038B504460D46072902D90020FFF7C2FF1F2C02D90020FFF7BDFF04F01F0000F1604000F564406D01EDB2057038BD00BFEA
:4007C000134B1B78DBB20360124A127843EA02230360114A127843EA024303600F4A127843EA026303600E4B1B78DBB243600D4A127843EA022343600B4A127843EA0243A8
:4008000043600A4A127843EA02634360704700BF0301004904010049EC4600400201004901010049000100490501004906010049084A137843F0010313701032137843F068
:400840000103137002F64D32137843F001031370704700BFA3430040084A137803F0FE031370A2F65D32137803F0FE0313701032137803F0FE031370704700BF004F0040D3
:40088000014B1870704700BF034F0040014B1880704700BF044F0040014B1880704700BF064F004008B5154A137803F0010313700232137803F0FC031370114B1A7802F04B
:4008C000CF021A701A7842F030021A701A7802F0F0021A701A7842F00F021A70094A137843F0010313700920FFF7D0FF0920FFF7D3FF0820FFF7C4FF08BD00BF004F004053
:400900000B4F0040014F004008B5054B1B7823B9FFF7C8FF0122024B1A70FFF789FF08BD2591FF1FF8B501F0CBF90746404A137843F0010313701032137843F0010313703E
:4009400001263C4B1E700225943B1D7002F5E2521B32137803F07F0313700020FFF7FAFE354C237803F0F9032370344A137803F0DF0313702378334323703046FFF7EAFEB8
:400980002820FFF7E7FE2E4B1A7802F07F021A701A7802F0BF021A7023782B4323702846FFF7D8FE237843F0040323700023254A137001321370384601F086F907211720E7
:4009C000FFF7E6FE20491720FFF7CEFE07211820FFF7DEFE1D491820FFF7C6FE07211520FFF7D6FE1A491520FFF7BEFE07213046FFF7CEFE17493046FFF7B6FE072128464A
:400A0000FFF7C6FE14492846FFF7AEFE07210320FFF7BEFE11490320FFF7A6FE07210C20FFF7B6FE0E490C20FFF79EFEF8BD00BFA54300409D6000409443004012600040C6
:400A4000F851004084600040E1120000C9100000DD1200003D1200006D120000A1120000E912000008B5214B18700023204A1370204A1370204A1370204A1370204A13701D
:400A8000204A1370204A1370204B4FF400021A604FF080721A604FF400121A6002221A6004221A6008221A6011B1012906D00BE0174A137803F0FE0313700AE0144A1378F3
:400AC00043F00103137004E0114A137843F00103137003220F4B1A708022203B1A70012001F0E6F804220C4B1A7008BDEB91FF1FEA91FF1F5C91FF1F5D91FF1F5E91FF1F15
:400B0000EE91FF1F5F91FF1F5B91FF1F00E100E009600040286000401260004038B504460D46064B1B7823B9FFF7FCFE0122034B1A7029462046FFF795FF38BD2691FF1FBE
:400B400000230A4A13700A4A13700A4A13700A4A13700A4A13700A4A13700A4A13700322094B1A708022203B1A707047EA91FF1F5C91FF1F5D91FF1F5E91FF1FEE91FF1FD6
:400B80005F91FF1F5B91FF1F28600040014B1878704700BF5D91FF1F00EB40008300024A13445878704700BF7C91FF1F431EDBB2072B3CD8F0B4074600EB4004A3001C4CD6
:400BC0002344DB889BB2C3F500739A4208D900EB400293002344DA8892B2C2F5007292B200EB4004A300124C2344DB7843EA1223104D04012E192B55D3B2737039B909E004
:400C0000CE5C3D010C4C665501339BB200E000239A42F5D8420002449300054A134400225A705A79D2B20001044B1A54F0BC70477C91FF1FFC5F004078600040FE5F00406C
:400C400010B4FF2400230EE0094AD25C02EB42029100084A11448A7AD2B2824201D11C4602230133DBB2012BEED9204610BC70474891FF1F7C91FF1F10B5204C2079FFF76E
:400C8000DFFF237813F0800F0ED06378DBB2212B2FD11B4B07221A80C0EBC000194A1044586000F07FFA10BD144B5B78DBB2202B02D0222B10D01EE0114A07231380C0EB94
:400CC000C00310490B4453600F4A135C43F00103135400F08FFA10BD084B9B780B4A22F81030094A135C43F00203135400F018F910BD002010BD002010BD00BF00600040AD
:400D00006C91FF1FE080FF1F5091FF1F5491FF1F70B506460D460F4B1B780F4AD45CE4B204EB440293000D4A13441B899BB28B4209D204EB44029300084A13441D89ADB2C3
:400D40000020FFF7EFFC2A4631462046FFF72EFF70BD00BF2791FF1F4091FF1F7C91FF1F08B5034B1B78034AD05CFFF715FF08BD2791FF1F4091FF1FC37803F0030390F9BE
:400D8000020000280FDA032B06D002F001030B48C15442F001020EE0C2F380030848C15442F0040207E0032B05D0C2F340030548C15442F002021046704700BF4091FF1F91
:400DC0004891FF1F4491FF1F1D4B19781D4A13889BB20B449BB2138000220FE01A494B681B78DBB2194883544B6801334B600132D2B20B889BB2013B9BB20B80124B1B88D6
:400E00009BB20BB1072AE9D90D4B1B78DBB2082B00D05AB10E490B7883F080030B700F210C4B197002210C4B197004E0022309490B7009490B70094B1A70014B1A707047C4
:400E40005B91FF1FE891FF1F6C91FF1F006000406091FF1F5A91FF1FEA91FF1F7891FF1F0222074B1A708022064B1A700F22064B1A700023054A1370054A13700120704716
:400E8000EA91FF1F6091FF1F5A91FF1F5B91FF1F7891FF1F08B5FFF797FF08BD10B4194B197801F00F010239C9B2174A13889BB20B449BB21380002011E0144A5468144BD0
:400EC0001B5CDBB223705368013353600130C0B20139C9B213889BB2013B9BB213800B4B1B889BB20BB10029E7D10A4B19700A4A137883F0800313700B22084B1A7010BC6E
:400F0000704700BF29600040E891FF1F6C91FF1F006000407891FF1F6091FF1F5A91FF1F0623064A1370064A13708022054B1A700022054B1A700120704700BFEA91FF1F6A
:400F40005A91FF1F6091FF1F7891FF1F064B9B6843B1054B9A6810709A6804490988518000229A60704700BF6C91FF1FE891FF1F08B5134B1A78D2B21A701B78DBB213F045
:400F8000800F02D00F4A137008BD0220FFF7DEFF0D4B1B7803F06003202B05D0402B06D043B900F093FC06E000F092FE03E000F037FE00E0002010B90322024B1A7008BD25
:400FC000286000405A91FF1F0060004008B5094B1978094A13889BB20B449BB213800022064B1A700120FFF7B1FF0322044B1A7008BD00BF5B91FF1FE891FF1FEA91FF1FF4
:401000005A91FF1F08B50B4B1B78DBB2042B06D0062B07D0022B0BD1FFF7D8FF08BDFFF73DFF08BD0320FFF791FF0322024B1A7008BD00BFEA91FF1F5A91FF1F08B500222B
:40104000044B1A700120FFF781FF0322024B1A7008BD00BFEA91FF1F5A91FF1F08B50B4B1B7813F0FF0F07D0084A137843F0800307490B70002313700022064B1A7001202E
:40108000FFF764FF0322044B1A7008BDEE91FF1F08600040EA91FF1F5A91FF1F08B5094B1B78DBB2042B06D0062B07D0022B07D1FFF7F0FE08BDFFF7C1FF08BDFFF7CEFF03
:4010C00008BD00BFEA91FF1F08B5284B1B78DBB213F0100F48D013F0800F0CD003F00F03012B16D1FFF744FF214B1B7813F0800F11D1012312E013F0400F03D0FFF7CEFF19
:4011000001230BE013F0200F07D0FFF77BFF012304E0002302E0002300E0002323B3134B1B7813F0800F1FD1124B1B78124A12781343124A13701278D2B2934214D10C4B81
:401140001B78DBB2094A127812F0800F07D1084B1B78DBB2054A1370137803F00F03044A1278D2B29342EAD108BD00BF286000405A91FF1F6091FF1F7891FF1F29600040F4
:401180000022064B1A80064B9B682BB1044A916800230B7092685380704700BFE891FF1F6C91FF1F08B50F4B1B889BB213B9FFF757FE15E002220C4B1A7000220B4B1A70FE
:4011C000FFF7DEFF0A4AD179937943EA0123054A128892B2934201D2024A1380FFF7F4FD012008BD6C91FF1FEA91FF1F6091FF1F0060004008B504220B4B1A7080220B4B82
:401200001A70FFF7BDFF0A4AD179937943EA0123084A128892B2934201D2064A13800B22054B1A70012008BDEA91FF1F6091FF1F006000406C91FF1F5A91FF1F0122094BEC
:401240001A700F3B9B7C084B1B7B03F00303934204D0054AD37B83F08003D3730122024B5A7370470B6000407C91FF1F02220A4B1A700F3B93F82230084B1B7E03F0030346
:40128000012B04D0054AD37E83F08003D3760122024B5A76704700BF0B6000407C91FF1F04220C4B1A700F3B93F832300A4B93F8243003F00303012B06D0074A92F8273024
:4012C00083F0800382F827300122034B83F82520704700BF0B6000407C91FF1F704700BF08B5FFF72DFC08BD08B500F0A5FC08BD70B588B0054603AC174E0FCE0FC4336879
:40130000237035B322232B7003236B7001A8FFF757FA002402231AE008AA224412F81C2C08A901EB121111F8141CE954581C00212954981C02F00F0208AE324412F8142C3F
:401340002A54DA1CA9540134E4B20433DBB2212BE2D908B070BD00BF4426000010B401233EE019461A010C242148845403EB4300820020480244527912F0FF0F13D003EB5A
:40138000430082001B480244127912F0800F04D01801194A024494700AE01801164A02440820907004E01801134A0244802090704800084482000F480244D488E4B208014A
:4013C0000B4901448C71D088C0F30720C871D088C0B20871D288C2F307224A710133DBB2082BBED9FF22054B1A7010BC704700BF706000407C91FF1FFC5F00400A6000406E
:40140000074B1A78074B03EBC2035B681A7C824204D9C000103018444068704700207047EB91FF1F58260000F8B5404B1B7813F0FF0F79D03D4B18780138C0B2FFF7E0FF62
:40144000047AC2683A4B1878C0B200236AE01178884264D13749095CC9B25578A9425ED1917801F07F01D67806F00306DFF8C8E04D000D44AF000EEB07054FF0000C85F8A1
:4014800003C092F802C085F804C092F803C00EF807C097882F8192F90250002D0DDA012E01D1072700E00D274E000E44B500224E35446F7101266E700CE0012E01D1052783
:4014C00000E009274E000E44B5001B4E35446F7100266E70DFF868E00F010EEB07060125B57001FA05F529448D00134929440D89C5F307250EF807500D89EDB27570CE8842
:40150000F6B20E4D3D44AE71CE88C6F30726EE71CE88F6B22E71C988C1F30721697108320133DBB2A34292D3F8BD00BF5D91FF1F5E91FF1F6891FF1F7C91FF1F70600040A5
:40154000FC5F0040034B1A78034B03EBC2035868704700BFEB91FF1F5826000008B5084B18780138C0B2FFF74BFF30B142681279023200EBC203586808BD002008BD00BFF3
:401580005D91FF1F2DE9F047002310E0724D5900CA189600AC190022AA55A270E2702281A272627034462C4462710133DBB2082BECD940B90AE000226849CA546849CA5443
:4015C0000133DBB200E00023012BF4D9654B1B7813F0FF0F00F0BD80624B18780138C0B2FFF70EFF80464368DB7913F0400F05D05D4A137843F00103137004E05A4A1378D7
:4016000003F0FE03137098F808704FF0000A01266FE0D8F80C50002467E0AB7803F07F039E425FD1314606EB460083004A4803441B899BB2A888834206D206EB460E4FEAE7
:401640008E03454A134418812B784448C35CDBB26878834246D195F802C0DFF8FCE04B000B4498000EEB000383F804C0EB780EF80030EB7803F0030395F90200002813DABA
:40168000012B02D14FF0070901E04FF00D09DFF8C8E04B0003EB010C4FEA8C00704480F805900121417012E0012B02D14FF0050901E04FF00909DFF8A0E04B0003EB010C7B
:4016C0004FEA8C00704480F8059000214170AB790A2B01D0022B05D1524631462846FFF74BFB824608350134E4B2BC4295D30136F6B2082E8DD9D8F80C0000220CE0837816
:4017000003F07F0310F8084B03EB43039900124B19448C720132D2B2BA42F0D3FFF71EFF124B1860002301210FE00B4D4A00501884002C44E380228992B213449BB203F0DB
:40174000010213449BB20131C9B20829EDD9FFF705FEBDE8F08700BF7C91FF1F6891FF1F5891FF1F5D91FF1F5F91FF1F6491FF1F08B5154B1B7903F07F035A1ED2B2072A81
:4017800020D8590019448A0010490A44917841F0010191700021D170517841F002015170127912F0800F05D01B01094A1A448D23937004E01B01064A1A4489239370FFF729
:4017C000AFFB08BD002008BD006000407C91FF1FFC5F0040274B1B7903F07F035A1ED2B2072A44D810B5590019448A0022490A44917801F0FE0191700021D1701F4C1801CD
:40180000215C01F07F012154517801F0FD015170127912F0800F13D003EB43018A0016490A445278D2B2012A04D1224602440C23937019E01B01114A1A440D23937013E042
:4018400003EB43018A000C490A445278D2B2012A05D11B01094A1A440823937004E01B01064A1A4409239370FFF75AFB10BD0020704700BF006000407C91FF1FFC5F0040CE
:4018800010B50E4B1C79E4B20D4B18780138C0B2FFF7B6FD43681B799C4201D9022C0AD8084A135DDBB208490B55044B9B78DBB21355012010BD002010BD00BF006000400B
:4018C0005D91FF1F6891FF1F5891FF1F10B59C4B1B78DBB200219B4A118013F0800F00F0AD80974A5278D2B20A2A00F27481DFE812F06900720172017201720172010B00E6
:401900007201920072019A008D4BDB78DBB2012B09D1FFF717FE42688A4B5A6012221A80FFF740FC10BD864BDB78DBB2022B13D1834B9878FFF764FD002800F04E8142683E
:40194000804B5A605A68D1785A68927842EA01221A80FFF727FC10BD794BDB78DBB2032B05D02CE00A7811440133DBB201E000237549734A9278D2B2934203D20A7812F0B6
:40198000FF0FEFD16E4B9B7813F0FF0F0BD06C4B9B78DBB26D4A127C934204D16C4C2046FFF7A6FC21460B7813F0FF0F00F017810B78644A13805160FFF7F4FB10BD00F00B
:4019C00087F910BD13F0030317D0022B40F009815C490B805A4B1B7903F07F0303EB43039A005C4B1A449278D2B25B4B1A7000225A704B60FFF7D6FB10BD524902230B80DE
:401A0000564B1A78D2B2544B1A7000225A704B60FFF7C8FB10BD4B4B01221A80504A5A60FFF7C0FB10BD474A01231380444B1B794C490B445360FFF7B5FB10BD404A5278BB
:401A4000013A0A2A00F2CF80DFE812F04C00CD009800CD000B00CD00CD00CD001300CD003000374B9B78DBB23F4A1370FFF758FA10BD334B9B7803F0FF041BB1601EC0B267
:401A8000FFF7BEFC04B110B9002C40F0AE80344B1B78DBB29C4206D0314B1C700120334B1870FFF76FFDFFF73BFA10BDFFF7E8FE002800F09C80224A1379DBB21279D2B2EE
:401AC0002B490A702B4AD25CD2B22649CB5CDBB29A4204D00122254B1A70FFF7A5FCFFF71FFA10BD03F00303012B17D04BB1022B7FD1134B9B7813F0FF0F7CD1FFF76AFEBC
:401B000010BD0F4B9B78DBB2012B76D1134A137803F0FD031370FFF703FA10BD084B1B79DBB2012B6BD8064B98781B79DBB21249CA5C22EA0002CA54FFF7F2F910BD00BFCE
:401B4000006000406C91FF1FC0260000A4270000F091FF1F7C91FF1F2891FF1F5F91FF1F5D91FF1F6891FF1FEE91FF1F5C91FF1F5E91FF1F5891FF1FEC91FF1F03F00303D7
:401B8000012B17D04BB1022B3BD1224B9B7813F0FF0F38D1FFF7ECFD10BD1E4B9B78DBB2012B32D11C4A137843F002031370FFF7B7F910BD174B1B79DBB2012B27D8154B32
:401BC00098781B79DBB21549CA5C22EA0002CA54FFF7A6F910BD002010BD002010BD002010BD002010BD002010BD002010BD002010BD002010BD002010BD002010BD002040
:401C000010BD002010BD002010BD002010BD002010BD00BF006000405F91FF1FEC91FF1F044B1B7813F0800F01D0024B5B780020704700BF00600040024B1878C0F3801060
:401C4000704700BF8F450040014B1B681865704708ED00E04001C0B2014B1870704700BF04E400E01022014B1A60704700E100E01022014B1A60704780E100E010B50446CE
:401C8000FFF7F6FF2046FFF7DFFF0720FFF7E2FFFFF7E8FF10BD00BF044A137803F0FB03800000F00400184310707047205100400230800803D000BF01380046FCD17047C8
:401CC000EFF3108072B6704780F31088704700BF08B5144B1B7803F00303012B02D0022B04D00FE00F4B1B79DBB20CE00D4B1B7903F07F0303EB43039A000B4B1A44937A25
:401D0000DBB200E00023022B07D8084A1268D35C022B04D1FEF7B0FF08BD002008BD002008BD00BF006000407C91FF1F6491FF1F014B1868704700BF5C81FF1F0E4B70B57F
:401D40001E460E4C0025E41AA410A54204D056F8253098470135F8E700F048FD084B094C1E46E41AA4100025A54204D056F8253098470135F8E770BDF8270000F8270000A7
:401D8000F82700000028000010B5431E0A44914204D011F8014B03F8014FF8E710BD03460244934202D003F8011BFAE7704700000EB400B54FF402719CB0ADF814106FF0EF
:401DC0000041049107914FF6FF711DAB02900690084853F8042BADF81610006802A9019300F06CF8029B00221A701CB05DF804EB03B070475C81FF1F034613F8012B002AD8
:401E0000FBD1181A013870472DE9F0478E6882469E420C46914698463ED88A8912F4906F3AD02568096902236F1A656905EB450595FBF3F57B1C43449D4238BF1D465305AE
:401E40000FD5294600F040FB064698B13A462169FFF79AFFA38923F4906343F08003A38113E02A4600F08EFB064670B92169504600F0DEFA0C23CAF80030A3894FF0FF30B2
:401E800043F04003A381BDE8F08726613E44266046466561ED1BA560464528BF464649463246206800F0A8FAA36800209B1BA36023681E442660BDE8F08700002DE9F04F97
:401EC0009DB003938B8980461C060D4616460DD50B695BB9402100F0F7FA2860286118B90C23C8F80030CDE040236B610023099320238DF82930DFF89CB130238DF82A3095
:401F000037463C4614F8013B1BB9B7EB060910D003E0252BF9D02746F3E74B46324629464046FFF771FF013000F0A780099B4B4409933B78002B00F0A08000234FF0FF32B6
:401F400004930793059206938DF853301A930126052221784E4800F041FA671C049B38B14B4A3C46801A06FA00F018430490EFE7D90644BF20228DF853201A0744BF2B22A5
:401F80008DF8532022782A2A03D0079A00210A200BE0039A111D12680391002A10DA524243F00200079204900BE027463B780134303B092B03D800FB02320121F5E701B115
:401FC00007923B782E2B1ED17B782A2B0AD1039B02371A1D1B680392002BB8BF4FF0FF33059310E0002319460593781C0A2407463A780130303A092A03D804FB01210123A0
:40200000F5E703B1059103223978224800F0E6F940B14023CBEB000003FA00F0049B013718430490397806221B487E1C8DF8281000F0D4F988B1194B33B9039B073323F0EA
:4020400007030833039314E003AB00932A46144B04A94046AFF3008007E003AB00932A460F4B04A9404600F093F8B0F1FF3F824603D0099B5344099342E7AB895B0601D4A8
:40208000099801E04FF0FF301DB0BDE8F08F00BFB8270000BE270000C227000000000000091E00002DE9F04791461F460A698B6806469342B8BF1346C9F8003091F84320EF
:4020C0000C46DDF8208012B10133C9F800302368990642BFD9F800300233C9F80030256815F0060510D104F1190A07E00123524639463046C04701301AD00135E368D9F83D
:4021000000209B1A9D42F1DB94F843302268003318BF012392060FD5E118302081F843005A1C94F845102244023382F8431003E04FF0FF30BDE8F08704F14302394630468C
:40214000C0470130F4D02268D9F80050E36802F00602042A08BF5D1B2269A3680CBF25EAE57500259342C4BF9B1AED184FF000091A344D4509D00123224639463046C0477C
:402180000130D5D009F10109F3E70020BDE8F0872DE9F04317460A7E85B06E2A984606460C460C9B01F1430E00F0AE8011D8632A22D009D8002A00F0BB80582A40F0CA8016
:4021C00081F84520834955E0642A1ED0692A1CD0C0E0732A00F0B08009D86F2A2ED0702A40F0B8800A6842F020020A603EE0752A24D0782A3AD0ADE01A6801F14205111D2B
:402200001960136884F84230A8E021681A6811F0800F02D0111D196008E011F0400F02F10401196002D0B2F9003000E01368002B3CDA2D225B4284F8432037E021681A6841
:4022400011F0800F02D0111D196007E011F0400F02F10401196001D0138800E01368227E5C496F2A14BF0A2208221BE078225A4984F845202268186812F0800F00F1040531
:402280001D6003D1550601D5038800E00368D00744BF42F0200222601BB9226822F0200222601022002084F8430001E049490A226568002DA56008DB206820F00400206054
:4022C0002BB9002D7DD175460CE0002B79D07546B3FBF2F002FB1033CB5C05F8013D03460028F5D1082A0BD12368DA0708D5236962689A42DEBF302305F8013C05F1FF3563
:40230000C5EB0E0323612EE008681A6810F0800F496903D0101D1860136808E010F0400F02F104001860136801D0198000E0196000232361754616E01A68111D1960156842
:4023400000216268284600F049F808B1401B6060636804E004F1420584F8422001232361002384F84330CDF800803B4603AA21463046FFF797FE013002D14FF0FF3026E029
:4023800023692A4639463046C0470130F5D023689B0710D5002504F1190907E001234A4639463046C0470130E7D00135E368039A9B1A9D42F2DBE068039B9842B8BF18464E
:4023C00005E00B7804F1420584F842308AE705B0BDE8F083C9270000DA27000010B5C9B202449042034605D01C7801308C42F8D1184610BD002010BD884210B501EB0203B2
:4024000001D8421E0BE09842FBD28118D21AD34204D013F8014D01F8014DF8E710BD994204D011F8014B02F8014FF8E710BD000038B50546002944D051F8043C0C1F002BC9
:40244000B8BFE41800F0D4F81E4A1368114613B96360146030E0A3420DD92268A018834201BF18685B681218226063600C6023E0A24203D813465A68002AF9D118681918AE
:40248000A1420BD12168014458188242196013D110685268014419605A600DE002D90C232B6009E021686018824201BF106852680918216062605C602846BDE8384000F097
:4024C00098B838BD3091FF1F70B5CD1C25F0030508350C2D38BF0C25002D064601DBA94202D90C23336046E000F082F8234B1C681A462146A1B10B685B1B0ED40B2B03D99A
:402500000B60CC18CD501EE08C420BBF63684B681360636018BF0C4615E00C464968E9E7174C23681BB9304600F052F820602946304600F04DF8431C18D0C41C24F00304A6
:40254000A0420DD12560304600F053F804F10B00231D20F00700C31A0ED05A42E25070BD211A304600F034F80130EBD10C233360304600F03EF8002070BD00BF3091FF1F55
:402580002C91FF1FF8B5074615460E4621B91146BDE8F840FFF798BF1AB9FFF749FF2846F8BD00F027F885420ED929463846FFF78BFF044650B131462A46FFF7E5FB31465F
:4025C0003846FFF735FF01E03046F8BD2046F8BD38B5064C0023054608462360FDF72CFF431C02D1236803B12B6038BD1492FF1F7047704751F8040C0028BEBF091851F8E4
:40260000043CC018043870470000000025640D0A00000000004F00400C00305100404000C0510040100000000140001000140140000800400140000A004C014000020050DA
:40264000014020003031323334353637383941424344454600000000010000006026000001000000A4270000000000000000000001000000782600000100000060270000DD
:4026800003000000A42600000000000000000000000000000000000000000000A0260000020A000000008103080002000100820240000A000100030240000A0002030000C9
:4026C000040309042C0343007900700072006500730073002000530065006D00690063006F006E0064007500630074006F00720010035500530042005500410052005400F6
:402700003803430044004300200043006F006D006D0075006E00690063006100740069006F006E00200049006E00740065007200660061006300650026034300440043007A
:4027400020004400610074006100200049006E007400650072006600610063006500000009024300020101803209040000010202010305240010010424020205240600015E
:4027800005240100010705810308000A09040100020A0000040705820240000007050302400000001201000202000008B40432F20100010280014300232D302B2000686CAB
:4027C0004C00656667454647003031323334353637383941424344454600303132333435363738396162636465660000F8B500BFF8BC08BC9E4670474D000000B504000000
:40280000F8B500BFF8BC08BC9E4670472900000020280000C880FF1F98000000B8100000000000001892FF1F0000E02EC05D00001800000000366E0100C201000000080067
:40284000C201000000080000A120000000000200000000000000000000000000000000000000000000000000000000000000000000000000B62700000000000000000000ED
:4028800000000000000000000000000000000000000000000000000000000000000000000000000000000000000000000000000000000000FC80FF1F00000000000000007E
:4028C00000000000000000000000000000000000000000000000000000000000000000000000000000000000000000000000000000000000000000000000000000000000D8
:402900000000000000000000000000000000000000000000000000000000000000000000000000000000000000000000000000000000000000000000000000000000000097
:402940000000000000000000000000000000000000000000000000000000000000000000000000000000000000000000000000000000000000000000000000000000000057
:402980000000000000000000000000000000000000000000000000000000000000000000000000000000000000000000000000000000000000000000000000000000000017
:020000040003F7
:0200000480007A
:4000000001450040014F0040015200400101014001030140020501400107014003090140060A0140050B0140010D0140010F014001170140011901400940014005410140AA
:400040000A420140044301400144014003450140064601400B47014002480140014C0140025101407E020A4B7C40E204E220E008E240EE0CAF20B780EE04B820BAC0BE10FA
:40008000D804DC08DF311FA07F408740DE80E240E220E204EE02EE02300233203640370238408002CCF0CE10E2208B0294409F02A640A7201308630287088C409440A640D5
:4000C000A720C410D640E010A640AB20AF01EE3082408A019640E2041A201B048E109642C608E2020A020B400E40404090409642AB04B440C20ED002E802AE40EE40AF404F
:4001000000AB010300000000000020004000000000000000C0000000000B0B0000000000000404000000800017001801000000000000000000000000000000000000000022
:40014000000000000000000000000000000000000000000000000000000000000000000000000000000000000000000000000000000000000000000000000000000000007F
:40018000000000000000000000000000000000000000000000000000000000000000000000000000000000000000000000000000000000000000000000000000000000003F
:4001C00000000000000000000000000000000000000000000000000000000000000000000000000000000000000000000000000000000000000000000000000000000000FF
:4002000000000000000000000000000000000000000000000000000000000000000000000000000000000000000000000000000000000000000000000000000000000000BE
:0200000490006A
:0400000000004005B7
:0200000490105A
:04000000BC90ACAF55
:0200000490303A
:02000000E530E9
:0200000490402A
:4000000000000000000000000000000000000000000000000000000000000000000000000000000000000000000000000000000000000000000000000000000000000000C0
:400040000000000000000000000000000000000000000000000000000000000000000000000000000000000000000000000000000000000000000000000000000000000080
:400080000000000000000000000000000000000000000000000000000000000000000000000000000000000000000000000000000000000000000000000000000000000040
:4000C0000000000000000000000000000000000000000000000000000000000000000000000000000000000000000000000000000000000000000000000000000000000000
:0200000490501A
:0C00000000012E16106900012E24F59955
:00000001FF